{
  "contractName": "DEIStablecoin",
  "abi": [
    {
      "anonymous": false,
      "inputs": [
        {
          "indexed": true,
          "internalType": "address",
          "name": "_owner",
          "type": "address"
        },
        {
          "indexed": true,
          "internalType": "address",
          "name": "_spender",
          "type": "address"
        },
        {
          "indexed": false,
          "internalType": "uint256",
          "name": "_value",
          "type": "uint256"
        }
      ],
      "name": "Approval",
      "type": "event"
    },
    {
      "anonymous": false,
      "inputs": [
        {
          "indexed": false,
          "internalType": "uint8",
          "name": "version",
          "type": "uint8"
        }
      ],
      "name": "Initialized",
      "type": "event"
    },
    {
      "anonymous": false,
      "inputs": [],
      "name": "LosslessOff",
      "type": "event"
    },
    {
      "anonymous": false,
      "inputs": [],
      "name": "LosslessOn",
      "type": "event"
    },
    {
      "anonymous": false,
      "inputs": [
        {
          "indexed": false,
          "internalType": "uint256",
          "name": "_turnOffDate",
          "type": "uint256"
        }
      ],
      "name": "LosslessTurnOffProposal",
      "type": "event"
    },
    {
      "anonymous": false,
      "inputs": [
        {
          "indexed": true,
          "internalType": "address",
          "name": "_newAdmin",
          "type": "address"
        }
      ],
      "name": "NewAdmin",
      "type": "event"
    },
    {
      "anonymous": false,
      "inputs": [
        {
          "indexed": false,
          "internalType": "address",
          "name": "lss",
          "type": "address"
        }
      ],
      "name": "NewConroller",
      "type": "event"
    },
    {
      "anonymous": false,
      "inputs": [
        {
          "indexed": true,
          "internalType": "address",
          "name": "_newAdmin",
          "type": "address"
        }
      ],
      "name": "NewRecoveryAdmin",
      "type": "event"
    },
    {
      "anonymous": false,
      "inputs": [
        {
          "indexed": true,
          "internalType": "address",
          "name": "_candidate",
          "type": "address"
        }
      ],
      "name": "NewRecoveryAdminProposal",
      "type": "event"
    },
    {
      "anonymous": false,
      "inputs": [
        {
          "indexed": false,
          "internalType": "uint256",
          "name": "_newTimelockPeriod",
          "type": "uint256"
        }
      ],
      "name": "NewTimelockPeriod",
      "type": "event"
    },
    {
      "anonymous": false,
      "inputs": [
        {
          "indexed": true,
          "internalType": "bytes32",
          "name": "role",
          "type": "bytes32"
        },
        {
          "indexed": true,
          "internalType": "bytes32",
          "name": "previousAdminRole",
          "type": "bytes32"
        },
        {
          "indexed": true,
          "internalType": "bytes32",
          "name": "newAdminRole",
          "type": "bytes32"
        }
      ],
      "name": "RoleAdminChanged",
      "type": "event"
    },
    {
      "anonymous": false,
      "inputs": [
        {
          "indexed": true,
          "internalType": "bytes32",
          "name": "role",
          "type": "bytes32"
        },
        {
          "indexed": true,
          "internalType": "address",
          "name": "account",
          "type": "address"
        },
        {
          "indexed": true,
          "internalType": "address",
          "name": "sender",
          "type": "address"
        }
      ],
      "name": "RoleGranted",
      "type": "event"
    },
    {
      "anonymous": false,
      "inputs": [
        {
          "indexed": true,
          "internalType": "bytes32",
          "name": "role",
          "type": "bytes32"
        },
        {
          "indexed": true,
          "internalType": "address",
          "name": "account",
          "type": "address"
        },
        {
          "indexed": true,
          "internalType": "address",
          "name": "sender",
          "type": "address"
        }
      ],
      "name": "RoleRevoked",
      "type": "event"
    },
    {
      "anonymous": false,
      "inputs": [
        {
          "indexed": true,
          "internalType": "address",
          "name": "_from",
          "type": "address"
        },
        {
          "indexed": true,
          "internalType": "address",
          "name": "_to",
          "type": "address"
        },
        {
          "indexed": false,
          "internalType": "uint256",
          "name": "_value",
          "type": "uint256"
        }
      ],
      "name": "Transfer",
      "type": "event"
    },
    {
      "inputs": [],
      "name": "BURNER_ROLE",
      "outputs": [
        {
          "internalType": "bytes32",
          "name": "",
          "type": "bytes32"
        }
      ],
      "stateMutability": "view",
      "type": "function",
      "constant": true
    },
    {
      "inputs": [],
      "name": "DEFAULT_ADMIN_ROLE",
      "outputs": [
        {
          "internalType": "bytes32",
          "name": "",
          "type": "bytes32"
        }
      ],
      "stateMutability": "view",
      "type": "function",
      "constant": true
    },
    {
      "inputs": [],
      "name": "MINTER_ROLE",
      "outputs": [
        {
          "internalType": "bytes32",
          "name": "",
          "type": "bytes32"
        }
      ],
      "stateMutability": "view",
      "type": "function",
      "constant": true
    },
    {
      "inputs": [
        {
          "internalType": "bytes",
          "name": "key",
          "type": "bytes"
        }
      ],
      "name": "acceptRecoveryAdminOwnership",
      "outputs": [],
      "stateMutability": "nonpayable",
      "type": "function"
    },
    {
      "inputs": [],
      "name": "admin",
      "outputs": [
        {
          "internalType": "address",
          "name": "",
          "type": "address"
        }
      ],
      "stateMutability": "view",
      "type": "function",
      "constant": true
    },
    {
      "inputs": [
        {
          "internalType": "address",
          "name": "owner",
          "type": "address"
        },
        {
          "internalType": "address",
          "name": "spender",
          "type": "address"
        }
      ],
      "name": "allowance",
      "outputs": [
        {
          "internalType": "uint256",
          "name": "",
          "type": "uint256"
        }
      ],
      "stateMutability": "view",
      "type": "function",
      "constant": true
    },
    {
      "inputs": [
        {
          "internalType": "address",
          "name": "spender",
          "type": "address"
        },
        {
          "internalType": "uint256",
          "name": "amount",
          "type": "uint256"
        }
      ],
      "name": "approve",
      "outputs": [
        {
          "internalType": "bool",
          "name": "",
          "type": "bool"
        }
      ],
      "stateMutability": "nonpayable",
      "type": "function"
    },
    {
      "inputs": [
        {
          "internalType": "address",
          "name": "account",
          "type": "address"
        }
      ],
      "name": "balanceOf",
      "outputs": [
        {
          "internalType": "uint256",
          "name": "",
          "type": "uint256"
        }
      ],
      "stateMutability": "view",
      "type": "function",
      "constant": true
    },
    {
      "inputs": [
        {
          "internalType": "uint256",
          "name": "amount",
          "type": "uint256"
        }
      ],
      "name": "burn",
      "outputs": [],
      "stateMutability": "nonpayable",
      "type": "function"
    },
    {
      "inputs": [
        {
          "internalType": "address",
          "name": "account",
          "type": "address"
        },
        {
          "internalType": "uint256",
          "name": "amount",
          "type": "uint256"
        }
      ],
      "name": "burnFrom",
      "outputs": [],
      "stateMutability": "nonpayable",
      "type": "function"
    },
    {
      "inputs": [],
      "name": "decimals",
      "outputs": [
        {
          "internalType": "uint8",
          "name": "",
          "type": "uint8"
        }
      ],
      "stateMutability": "view",
      "type": "function",
      "constant": true
    },
    {
      "inputs": [
        {
          "internalType": "address",
          "name": "spender",
          "type": "address"
        },
        {
          "internalType": "uint256",
          "name": "subtractedValue",
          "type": "uint256"
        }
      ],
      "name": "decreaseAllowance",
      "outputs": [
        {
          "internalType": "bool",
          "name": "",
          "type": "bool"
        }
      ],
      "stateMutability": "nonpayable",
      "type": "function"
    },
    {
      "inputs": [],
      "name": "executeLosslessTurnOff",
      "outputs": [],
      "stateMutability": "nonpayable",
      "type": "function"
    },
    {
      "inputs": [],
      "name": "executeLosslessTurnOn",
      "outputs": [],
      "stateMutability": "nonpayable",
      "type": "function"
    },
    {
      "inputs": [],
      "name": "getAdmin",
      "outputs": [
        {
          "internalType": "address",
          "name": "",
          "type": "address"
        }
      ],
      "stateMutability": "view",
      "type": "function",
      "constant": true
    },
    {
      "inputs": [
        {
          "internalType": "bytes32",
          "name": "role",
          "type": "bytes32"
        }
      ],
      "name": "getRoleAdmin",
      "outputs": [
        {
          "internalType": "bytes32",
          "name": "",
          "type": "bytes32"
        }
      ],
      "stateMutability": "view",
      "type": "function",
      "constant": true
    },
    {
      "inputs": [
        {
          "internalType": "bytes32",
          "name": "role",
          "type": "bytes32"
        },
        {
          "internalType": "address",
          "name": "account",
          "type": "address"
        }
      ],
      "name": "grantRole",
      "outputs": [],
      "stateMutability": "nonpayable",
      "type": "function"
    },
    {
      "inputs": [
        {
          "internalType": "bytes32",
          "name": "role",
          "type": "bytes32"
        },
        {
          "internalType": "address",
          "name": "account",
          "type": "address"
        }
      ],
      "name": "hasRole",
      "outputs": [
        {
          "internalType": "bool",
          "name": "",
          "type": "bool"
        }
      ],
      "stateMutability": "view",
      "type": "function",
      "constant": true
    },
    {
      "inputs": [
        {
          "internalType": "address",
          "name": "spender",
          "type": "address"
        },
        {
          "internalType": "uint256",
          "name": "addedValue",
          "type": "uint256"
        }
      ],
      "name": "increaseAllowance",
      "outputs": [
        {
          "internalType": "bool",
          "name": "",
          "type": "bool"
        }
      ],
      "stateMutability": "nonpayable",
      "type": "function"
    },
    {
      "inputs": [],
      "name": "isLosslessOn",
      "outputs": [
        {
          "internalType": "bool",
          "name": "",
          "type": "bool"
        }
      ],
      "stateMutability": "view",
      "type": "function",
      "constant": true
    },
    {
      "inputs": [],
      "name": "lossless",
      "outputs": [
        {
          "internalType": "contract ILssController",
          "name": "",
          "type": "address"
        }
      ],
      "stateMutability": "view",
      "type": "function",
      "constant": true
    },
    {
      "inputs": [],
      "name": "losslessTurnOffTimestamp",
      "outputs": [
        {
          "internalType": "uint256",
          "name": "",
          "type": "uint256"
        }
      ],
      "stateMutability": "view",
      "type": "function",
      "constant": true
    },
    {
      "inputs": [],
      "name": "lssControllerAdmin",
      "outputs": [
        {
          "internalType": "address",
          "name": "",
          "type": "address"
        }
      ],
      "stateMutability": "view",
      "type": "function",
      "constant": true
    },
    {
      "inputs": [],
      "name": "name",
      "outputs": [
        {
          "internalType": "string",
          "name": "",
          "type": "string"
        }
      ],
      "stateMutability": "view",
      "type": "function",
      "constant": true
    },
    {
      "inputs": [],
      "name": "proposeLosslessTurnOff",
      "outputs": [],
      "stateMutability": "nonpayable",
      "type": "function"
    },
    {
      "inputs": [],
      "name": "recoveryAdmin",
      "outputs": [
        {
          "internalType": "address",
          "name": "",
          "type": "address"
        }
      ],
      "stateMutability": "view",
      "type": "function",
      "constant": true
    },
    {
      "inputs": [
        {
          "internalType": "bytes32",
          "name": "role",
          "type": "bytes32"
        },
        {
          "internalType": "address",
          "name": "account",
          "type": "address"
        }
      ],
      "name": "renounceRole",
      "outputs": [],
      "stateMutability": "nonpayable",
      "type": "function"
    },
    {
      "inputs": [
        {
          "internalType": "bytes32",
          "name": "role",
          "type": "bytes32"
        },
        {
          "internalType": "address",
          "name": "account",
          "type": "address"
        }
      ],
      "name": "revokeRole",
      "outputs": [],
      "stateMutability": "nonpayable",
      "type": "function"
    },
    {
      "inputs": [
        {
          "internalType": "address",
          "name": "newAdmin",
          "type": "address"
        }
      ],
      "name": "setLosslessAdmin",
      "outputs": [],
      "stateMutability": "nonpayable",
      "type": "function"
    },
    {
      "inputs": [
        {
          "internalType": "address",
          "name": "lss",
          "type": "address"
        }
      ],
      "name": "setLssController",
      "outputs": [],
      "stateMutability": "nonpayable",
      "type": "function"
    },
    {
      "inputs": [
        {
          "internalType": "uint256",
          "name": "newTimelockPeriod",
          "type": "uint256"
        }
      ],
      "name": "setTimelockPeriod",
      "outputs": [],
      "stateMutability": "nonpayable",
      "type": "function"
    },
    {
      "inputs": [
        {
          "internalType": "bytes4",
          "name": "interfaceId",
          "type": "bytes4"
        }
      ],
      "name": "supportsInterface",
      "outputs": [
        {
          "internalType": "bool",
          "name": "",
          "type": "bool"
        }
      ],
      "stateMutability": "view",
      "type": "function",
      "constant": true
    },
    {
      "inputs": [],
      "name": "symbol",
      "outputs": [
        {
          "internalType": "string",
          "name": "",
          "type": "string"
        }
      ],
      "stateMutability": "view",
      "type": "function",
      "constant": true
    },
    {
      "inputs": [],
      "name": "timelockPeriod",
      "outputs": [
        {
          "internalType": "uint256",
          "name": "",
          "type": "uint256"
        }
      ],
      "stateMutability": "view",
      "type": "function",
      "constant": true
    },
    {
      "inputs": [],
      "name": "totalSupply",
      "outputs": [
        {
          "internalType": "uint256",
          "name": "",
          "type": "uint256"
        }
      ],
      "stateMutability": "view",
      "type": "function",
      "constant": true
    },
    {
      "inputs": [
        {
          "internalType": "address",
          "name": "recipient",
          "type": "address"
        },
        {
          "internalType": "uint256",
          "name": "amount",
          "type": "uint256"
        }
      ],
      "name": "transfer",
      "outputs": [
        {
          "internalType": "bool",
          "name": "",
          "type": "bool"
        }
      ],
      "stateMutability": "nonpayable",
      "type": "function"
    },
    {
      "inputs": [
        {
          "internalType": "address",
          "name": "sender",
          "type": "address"
        },
        {
          "internalType": "address",
          "name": "recipient",
          "type": "address"
        },
        {
          "internalType": "uint256",
          "name": "amount",
          "type": "uint256"
        }
      ],
      "name": "transferFrom",
      "outputs": [
        {
          "internalType": "bool",
          "name": "",
          "type": "bool"
        }
      ],
      "stateMutability": "nonpayable",
      "type": "function"
    },
    {
      "inputs": [
        {
          "internalType": "address[]",
          "name": "from",
          "type": "address[]"
        }
      ],
      "name": "transferOutBlacklistedFunds",
      "outputs": [],
      "stateMutability": "nonpayable",
      "type": "function"
    },
    {
      "inputs": [
        {
          "internalType": "address",
          "name": "candidate",
          "type": "address"
        },
        {
          "internalType": "bytes32",
          "name": "keyHash",
          "type": "bytes32"
        }
      ],
      "name": "transferRecoveryAdminOwnership",
      "outputs": [],
      "stateMutability": "nonpayable",
      "type": "function"
    },
    {
      "inputs": [
        {
          "internalType": "uint256",
          "name": "totalSupply",
          "type": "uint256"
        },
        {
          "internalType": "address",
          "name": "admin",
          "type": "address"
        },
        {
          "internalType": "address",
          "name": "recoveryAdmin",
          "type": "address"
        },
        {
          "internalType": "uint256",
          "name": "timelockPeriod",
          "type": "uint256"
        },
        {
          "internalType": "address",
          "name": "lossless",
          "type": "address"
        }
      ],
      "name": "initialize",
      "outputs": [],
      "stateMutability": "nonpayable",
      "type": "function"
    },
    {
      "inputs": [
        {
          "internalType": "address",
          "name": "to",
          "type": "address"
        },
        {
          "internalType": "uint256",
          "name": "amount",
          "type": "uint256"
        }
      ],
      "name": "mint",
      "outputs": [],
      "stateMutability": "nonpayable",
      "type": "function"
    }
  ],
  "bytecode": "0x608060405234801561001057600080fd5b506147dc806100206000396000f3fe608060405234801561001057600080fd5b50600436106102535760003560e01c80636b4ff41d11610146578063a9059cbb116100c3578063d547741f11610087578063d547741f146106d8578063d6e242b8146106f4578063dd62ed3e146106fe578063ecb81f191461072e578063f55c980f1461074a578063f851a4401461076657610253565b8063a9059cbb14610646578063b38fe95714610676578063b5c2287714610680578063ccfa214f1461069c578063d5391393146106ba57610253565b806393310ffe1161010a57806393310ffe146105a2578063936af911146105be57806395d89b41146105da578063a217fddf146105f8578063a457c2d71461061657610253565b80636b4ff41d146104ea5780636e9960c31461050857806370a082311461052657806379cc67901461055657806391d148541461057257610253565b80632f2ff15d116101d457806340c10f191161019857806340c10f191461046c57806342966c68146104885780635b8a194a146104a45780635f6529a3146104ae57806361086b00146104cc57610253565b80632f2ff15d146103c8578063313ce567146103e457806334f6ebf51461040257806336568abe14610420578063395093511461043c57610253565b8063248a9ca31161021b578063248a9ca314610324578063282c51f3146103545780632b7c9fd6146103725780632baa3c9e1461038e5780632ecaf675146103aa57610253565b806301ffc9a71461025857806306fdde0314610288578063095ea7b3146102a657806318160ddd146102d657806323b872dd146102f4575b600080fd5b610272600480360381019061026d919061317b565b610784565b60405161027f91906131c3565b60405180910390f35b6102906107fe565b60405161029d9190613277565b60405180910390f35b6102c060048036038101906102bb919061332d565b610890565b6040516102cd91906131c3565b60405180910390f35b6102de610960565b6040516102eb919061337c565b60405180910390f35b61030e60048036038101906103099190613397565b61096a565b60405161031b91906131c3565b60405180910390f35b61033e60048036038101906103399190613420565b610b21565b60405161034b919061345c565b60405180910390f35b61035c610b41565b604051610369919061345c565b60405180910390f35b61038c60048036038101906103879190613477565b610b65565b005b6103a860048036038101906103a391906134f2565b610d2e565b005b6103b2610edd565b6040516103bf919061337c565b60405180910390f35b6103e260048036038101906103dd919061351f565b610ee3565b005b6103ec610f04565b6040516103f9919061357b565b60405180910390f35b61040a610f0d565b60405161041791906135f5565b60405180910390f35b61043a6004803603810190610435919061351f565b610f33565b005b6104566004803603810190610451919061332d565b610fb6565b60405161046391906131c3565b60405180910390f35b6104866004803603810190610481919061332d565b611114565b005b6104a2600480360381019061049d9190613610565b61114d565b005b6104ac611161565b005b6104b6611299565b6040516104c3919061364c565b60405180910390f35b6104d46112bf565b6040516104e1919061337c565b60405180910390f35b6104f26112c5565b6040516104ff919061364c565b60405180910390f35b6105106112eb565b60405161051d919061364c565b60405180910390f35b610540600480360381019061053b91906134f2565b611315565b60405161054d919061337c565b60405180910390f35b610570600480360381019061056b919061332d565b61135e565b005b61058c6004803603810190610587919061351f565b611412565b60405161059991906131c3565b60405180910390f35b6105bc60048036038101906105b79190613667565b61147d565b005b6105d860048036038101906105d3919061370c565b6115a3565b005b6105e261182c565b6040516105ef9190613277565b60405180910390f35b6106006118be565b60405161060d919061345c565b60405180910390f35b610630600480360381019061062b919061332d565b6118c5565b60405161063d91906131c3565b60405180910390f35b610660600480360381019061065b919061332d565b611a6c565b60405161066d91906131c3565b60405180910390f35b61067e611b3c565b005b61069a60048036038101906106959190613889565b611caf565b005b6106a4611e9e565b6040516106b191906131c3565b60405180910390f35b6106c2611eb1565b6040516106cf919061345c565b60405180910390f35b6106f260048036038101906106ed919061351f565b611ed5565b005b6106fc611ef6565b005b610718600480360381019061071391906138d2565b612070565b604051610725919061337c565b60405180910390f35b610748600480360381019061074391906134f2565b6120f7565b005b610764600480360381019061075f9190613610565b612202565b005b61076e6122da565b60405161077b919061364c565b60405180910390f35b60007f7965db0b000000000000000000000000000000000000000000000000000000007bffffffffffffffffffffffffffffffffffffffffffffffffffffffff1916827bffffffffffffffffffffffffffffffffffffffffffffffffffffffff191614806107f757506107f682612300565b5b9050919050565b60606036805461080d90613941565b80601f016020809104026020016040519081016040528092919081815260200182805461083990613941565b80156108865780601f1061085b57610100808354040283529160200191610886565b820191906000526020600020905b81548152906001019060200180831161086957829003601f168201915b5050505050905090565b60008282603f60009054906101000a900460ff161561094257603f60019054906101000a900473ffffffffffffffffffffffffffffffffffffffff1673ffffffffffffffffffffffffffffffffffffffff166347abf3be6108ef61236a565b84846040518463ffffffff1660e01b815260040161090f93929190613973565b600060405180830381600087803b15801561092957600080fd5b505af115801561093d573d6000803e3d6000fd5b505050505b61095461094d61236a565b8686612372565b60019250505092915050565b6000603554905090565b6000838383603f60009054906101000a900460ff1615610a1f57603f60019054906101000a900473ffffffffffffffffffffffffffffffffffffffff1673ffffffffffffffffffffffffffffffffffffffff1663379f5c696109ca61236a565b8585856040518563ffffffff1660e01b81526004016109ec94939291906139aa565b600060405180830381600087803b158015610a0657600080fd5b505af1158015610a1a573d6000803e3d6000fd5b505050505b6000603460008973ffffffffffffffffffffffffffffffffffffffff1673ffffffffffffffffffffffffffffffffffffffff1681526020019081526020016000206000610a6a61236a565b73ffffffffffffffffffffffffffffffffffffffff1673ffffffffffffffffffffffffffffffffffffffff16815260200190815260200160002054905085811015610aea576040517f08c379a0000000000000000000000000000000000000000000000000000000008152600401610ae190613a61565b60405180910390fd5b610af588888861245d565b610b1288610b0161236a565b8884610b0d9190613ab0565b612372565b60019450505050509392505050565b600060726000838152602001908152602001600020600101549050919050565b7f3c11d16cbaffd01df69ce1c404f6340ee057498f5f00246190ea54220576a84881565b60008060019054906101000a900460ff16159050808015610b965750600160008054906101000a900460ff1660ff16105b80610bc35750610ba530612664565b158015610bc25750600160008054906101000a900460ff1660ff16145b5b610c02576040517f08c379a0000000000000000000000000000000000000000000000000000000008152600401610bf990613b56565b60405180910390fd5b60016000806101000a81548160ff021916908360ff1602179055508015610c3f576001600060016101000a81548160ff0219169083151502179055505b610cb8866040518060400160405280600381526020017f44454900000000000000000000000000000000000000000000000000000000008152506040518060400160405280600381526020017f444549000000000000000000000000000000000000000000000000000000000081525088888888612687565b610cc0612855565b610ccd6000801b866128a6565b8015610d265760008060016101000a81548160ff0219169083151502179055507f7f26b83ff96e1f2b6a682f133852f6798a09c465da95921460cefb38474024986001604051610d1d9190613bb1565b60405180910390a15b505050505050565b603960009054906101000a900473ffffffffffffffffffffffffffffffffffffffff1673ffffffffffffffffffffffffffffffffffffffff16610d6f61236a565b73ffffffffffffffffffffffffffffffffffffffff1614610dc5576040517f08c379a0000000000000000000000000000000000000000000000000000000008152600401610dbc90613c18565b60405180910390fd5b603c60009054906101000a900473ffffffffffffffffffffffffffffffffffffffff1673ffffffffffffffffffffffffffffffffffffffff168173ffffffffffffffffffffffffffffffffffffffff161415610e56576040517f08c379a0000000000000000000000000000000000000000000000000000000008152600401610e4d90613c84565b60405180910390fd5b8073ffffffffffffffffffffffffffffffffffffffff167f71614071b88dee5e0b2ae578a9dd7b2ebbe9ae832ba419dc0242cd065a290b6c60405160405180910390a280603c60006101000a81548173ffffffffffffffffffffffffffffffffffffffff021916908373ffffffffffffffffffffffffffffffffffffffff16021790555050565b603d5481565b610eec82610b21565b610ef581612987565b610eff83836128a6565b505050565b60006012905090565b603f60019054906101000a900473ffffffffffffffffffffffffffffffffffffffff1681565b610f3b61236a565b73ffffffffffffffffffffffffffffffffffffffff168173ffffffffffffffffffffffffffffffffffffffff1614610fa8576040517f08c379a0000000000000000000000000000000000000000000000000000000008152600401610f9f90613d16565b60405180910390fd5b610fb2828261299b565b5050565b60008282603f60009054906101000a900460ff161561106857603f60019054906101000a900473ffffffffffffffffffffffffffffffffffffffff1673ffffffffffffffffffffffffffffffffffffffff1663cf5961bb61101561236a565b84846040518463ffffffff1660e01b815260040161103593929190613973565b600060405180830381600087803b15801561104f57600080fd5b505af1158015611063573d6000803e3d6000fd5b505050505b61110861107361236a565b86866034600061108161236a565b73ffffffffffffffffffffffffffffffffffffffff1673ffffffffffffffffffffffffffffffffffffffff16815260200190815260200160002060008a73ffffffffffffffffffffffffffffffffffffffff1673ffffffffffffffffffffffffffffffffffffffff168152602001908152602001600020546111039190613d36565b612372565b60019250505092915050565b7f9f2df0fed2c77648de5860a4cc508cd0818c85b8b8a1ab4ceeef8d981c8956a661113e81612987565b6111488383612a7d565b505050565b61115e61115861236a565b82612bbd565b50565b603960009054906101000a900473ffffffffffffffffffffffffffffffffffffffff1673ffffffffffffffffffffffffffffffffffffffff166111a261236a565b73ffffffffffffffffffffffffffffffffffffffff16146111f8576040517f08c379a00000000000000000000000000000000000000000000000000000000081526004016111ef90613c18565b60405180910390fd5b603f60009054906101000a900460ff1615611248576040517f08c379a000000000000000000000000000000000000000000000000000000000815260040161123f90613dd8565b60405180910390fd5b6000603e819055506001603f60006101000a81548160ff0219169083151502179055507f1ba3b66404043da8297d0b876fa6464f2cb127edfc6626308046d4503028322b60405160405180910390a1565b603960009054906101000a900473ffffffffffffffffffffffffffffffffffffffff1681565b603e5481565b603860009054906101000a900473ffffffffffffffffffffffffffffffffffffffff1681565b6000603c60009054906101000a900473ffffffffffffffffffffffffffffffffffffffff16905090565b6000603360008373ffffffffffffffffffffffffffffffffffffffff1673ffffffffffffffffffffffffffffffffffffffff168152602001908152602001600020549050919050565b60006034600061136c61236a565b73ffffffffffffffffffffffffffffffffffffffff1673ffffffffffffffffffffffffffffffffffffffff16815260200190815260200160002060008473ffffffffffffffffffffffffffffffffffffffff1673ffffffffffffffffffffffffffffffffffffffff168152602001908152602001600020549050611403836113f261236a565b84846113fe9190613ab0565b612372565b61140d8383612bbd565b505050565b60006072600084815260200190815260200160002060000160008373ffffffffffffffffffffffffffffffffffffffff1673ffffffffffffffffffffffffffffffffffffffff16815260200190815260200160002060009054906101000a900460ff16905092915050565b603960009054906101000a900473ffffffffffffffffffffffffffffffffffffffff1673ffffffffffffffffffffffffffffffffffffffff166114be61236a565b73ffffffffffffffffffffffffffffffffffffffff1614611514576040517f08c379a000000000000000000000000000000000000000000000000000000000815260040161150b90613c18565b60405180910390fd5b81603a60006101000a81548173ffffffffffffffffffffffffffffffffffffffff021916908373ffffffffffffffffffffffffffffffffffffffff16021790555080603b819055508173ffffffffffffffffffffffffffffffffffffffff167f6c591da8da2f6e69746d7d9ae61c27ee29fbe303798141b4942ae2aef54274b160405160405180910390a25050565b603f60019054906101000a900473ffffffffffffffffffffffffffffffffffffffff1673ffffffffffffffffffffffffffffffffffffffff166115e461236a565b73ffffffffffffffffffffffffffffffffffffffff161461163a576040517f08c379a000000000000000000000000000000000000000000000000000000000815260040161163190613e44565b60405180910390fd5b60008282905090506000805b828110156117ad57600085858381811061166357611662613e64565b5b905060200201602081019061167891906134f2565b90506000603360008373ffffffffffffffffffffffffffffffffffffffff1673ffffffffffffffffffffffffffffffffffffffff1681526020019081526020016000205490506000603360008473ffffffffffffffffffffffffffffffffffffffff1673ffffffffffffffffffffffffffffffffffffffff16815260200190815260200160002081905550808461170f9190613d36565b9350603f60019054906101000a900473ffffffffffffffffffffffffffffffffffffffff1673ffffffffffffffffffffffffffffffffffffffff168273ffffffffffffffffffffffffffffffffffffffff167fddf252ad1be2c89b69c2b068fc378daa952ba7f163c4a11628f55a4df523b3ef83604051611790919061337c565b60405180910390a3505080806117a590613e93565b915050611646565b508060336000603f60019054906101000a900473ffffffffffffffffffffffffffffffffffffffff1673ffffffffffffffffffffffffffffffffffffffff1673ffffffffffffffffffffffffffffffffffffffff168152602001908152602001600020600082825461181f9190613d36565b9250508190555050505050565b60606037805461183b90613941565b80601f016020809104026020016040519081016040528092919081815260200182805461186790613941565b80156118b45780601f10611889576101008083540402835291602001916118b4565b820191906000526020600020905b81548152906001019060200180831161189757829003601f168201915b5050505050905090565b6000801b81565b60008282603f60009054906101000a900460ff161561197757603f60019054906101000a900473ffffffffffffffffffffffffffffffffffffffff1673ffffffffffffffffffffffffffffffffffffffff1663568c75a961192461236a565b84846040518463ffffffff1660e01b815260040161194493929190613973565b600060405180830381600087803b15801561195e57600080fd5b505af1158015611972573d6000803e3d6000fd5b505050505b60006034600061198561236a565b73ffffffffffffffffffffffffffffffffffffffff1673ffffffffffffffffffffffffffffffffffffffff16815260200190815260200160002060008773ffffffffffffffffffffffffffffffffffffffff1673ffffffffffffffffffffffffffffffffffffffff16815260200190815260200160002054905084811015611a42576040517f08c379a0000000000000000000000000000000000000000000000000000000008152600401611a3990613f4e565b60405180910390fd5b611a5f611a4d61236a565b878784611a5a9190613ab0565b612372565b6001935050505092915050565b60008282603f60009054906101000a900460ff1615611b1e57603f60019054906101000a900473ffffffffffffffffffffffffffffffffffffffff1673ffffffffffffffffffffffffffffffffffffffff16631ffb811f611acb61236a565b84846040518463ffffffff1660e01b8152600401611aeb93929190613973565b600060405180830381600087803b158015611b0557600080fd5b505af1158015611b19573d6000803e3d6000fd5b505050505b611b30611b2961236a565b868661245d565b60019250505092915050565b603960009054906101000a900473ffffffffffffffffffffffffffffffffffffffff1673ffffffffffffffffffffffffffffffffffffffff16611b7d61236a565b73ffffffffffffffffffffffffffffffffffffffff1614611bd3576040517f08c379a0000000000000000000000000000000000000000000000000000000008152600401611bca90613c18565b60405180910390fd5b6000603e541415611c19576040517f08c379a0000000000000000000000000000000000000000000000000000000008152600401611c1090613fba565b60405180910390fd5b42603e541115611c5e576040517f08c379a0000000000000000000000000000000000000000000000000000000008152600401611c5590614026565b60405180910390fd5b6000603f60006101000a81548160ff0219169083151502179055506000603e819055507f3eb72350c9c7928d31e9ab450bfff2c159434aa4b82658a7d8eae7f109cb4e7b60405160405180910390a1565b603a60009054906101000a900473ffffffffffffffffffffffffffffffffffffffff1673ffffffffffffffffffffffffffffffffffffffff16611cf061236a565b73ffffffffffffffffffffffffffffffffffffffff1614611d46576040517f08c379a0000000000000000000000000000000000000000000000000000000008152600401611d3d90614092565b60405180910390fd5b603b54818051906020012014611d91576040517f08c379a0000000000000000000000000000000000000000000000000000000008152600401611d88906140fe565b60405180910390fd5b603a60009054906101000a900473ffffffffffffffffffffffffffffffffffffffff1673ffffffffffffffffffffffffffffffffffffffff167fb94bba6936ec7f75ee931dadf6e1a4d66b43d09b6fa0178fb13df9b77fb5841f60405160405180910390a2603a60009054906101000a900473ffffffffffffffffffffffffffffffffffffffff16603960006101000a81548173ffffffffffffffffffffffffffffffffffffffff021916908373ffffffffffffffffffffffffffffffffffffffff1602179055506000603a60006101000a81548173ffffffffffffffffffffffffffffffffffffffff021916908373ffffffffffffffffffffffffffffffffffffffff16021790555050565b603f60009054906101000a900460ff1681565b7f9f2df0fed2c77648de5860a4cc508cd0818c85b8b8a1ab4ceeef8d981c8956a681565b611ede82610b21565b611ee781612987565b611ef1838361299b565b505050565b603960009054906101000a900473ffffffffffffffffffffffffffffffffffffffff1673ffffffffffffffffffffffffffffffffffffffff16611f3761236a565b73ffffffffffffffffffffffffffffffffffffffff1614611f8d576040517f08c379a0000000000000000000000000000000000000000000000000000000008152600401611f8490613c18565b60405180910390fd5b6000603e5414611fd2576040517f08c379a0000000000000000000000000000000000000000000000000000000008152600401611fc99061416a565b60405180910390fd5b603f60009054906101000a900460ff16612021576040517f08c379a0000000000000000000000000000000000000000000000000000000008152600401612018906141d6565b60405180910390fd5b603d544261202f9190613d36565b603e819055507f6ca688e6e3ddd707280140b2bf0106afe883689b6c74e68cbd517576dd9c245a603e54604051612066919061337c565b60405180910390a1565b6000603460008473ffffffffffffffffffffffffffffffffffffffff1673ffffffffffffffffffffffffffffffffffffffff16815260200190815260200160002060008373ffffffffffffffffffffffffffffffffffffffff1673ffffffffffffffffffffffffffffffffffffffff16815260200190815260200160002054905092915050565b603860009054906101000a900473ffffffffffffffffffffffffffffffffffffffff1673ffffffffffffffffffffffffffffffffffffffff163373ffffffffffffffffffffffffffffffffffffffff1614612187576040517f08c379a000000000000000000000000000000000000000000000000000000000815260040161217e90614242565b60405180910390fd5b80603f60016101000a81548173ffffffffffffffffffffffffffffffffffffffff021916908373ffffffffffffffffffffffffffffffffffffffff1602179055507f1968a9e697fb2ee4cd915c5c21cbe088f353ae9129566a31e53d2c8b2fd25751816040516121f7919061364c565b60405180910390a150565b603960009054906101000a900473ffffffffffffffffffffffffffffffffffffffff1673ffffffffffffffffffffffffffffffffffffffff1661224361236a565b73ffffffffffffffffffffffffffffffffffffffff1614612299576040517f08c379a000000000000000000000000000000000000000000000000000000000815260040161229090613c18565b60405180910390fd5b7fd3fcf9b3a3c0e56c64bbe7d178c180cd10cc7d1d0f96f76fbf30eaf78829fcd4816040516122c8919061337c565b60405180910390a180603d8190555050565b603c60009054906101000a900473ffffffffffffffffffffffffffffffffffffffff1681565b60007f01ffc9a7000000000000000000000000000000000000000000000000000000007bffffffffffffffffffffffffffffffffffffffffffffffffffffffff1916827bffffffffffffffffffffffffffffffffffffffffffffffffffffffff1916149050919050565b600033905090565b80603460008573ffffffffffffffffffffffffffffffffffffffff1673ffffffffffffffffffffffffffffffffffffffff16815260200190815260200160002060008473ffffffffffffffffffffffffffffffffffffffff1673ffffffffffffffffffffffffffffffffffffffff168152602001908152602001600020819055508173ffffffffffffffffffffffffffffffffffffffff168373ffffffffffffffffffffffffffffffffffffffff167f8c5be1e5ebec7d5bd14f71427d1e84f3dd0314c0f7b2291e5b200ac8c7c3b92583604051612450919061337c565b60405180910390a3505050565b600073ffffffffffffffffffffffffffffffffffffffff168373ffffffffffffffffffffffffffffffffffffffff1614156124cd576040517f08c379a00000000000000000000000000000000000000000000000000000000081526004016124c4906142d4565b60405180910390fd5b6000603360008573ffffffffffffffffffffffffffffffffffffffff1673ffffffffffffffffffffffffffffffffffffffff16815260200190815260200160002054905081811015612554576040517f08c379a000000000000000000000000000000000000000000000000000000000815260040161254b90614366565b60405180910390fd5b81816125609190613ab0565b603360008673ffffffffffffffffffffffffffffffffffffffff1673ffffffffffffffffffffffffffffffffffffffff1681526020019081526020016000208190555081603360008573ffffffffffffffffffffffffffffffffffffffff1673ffffffffffffffffffffffffffffffffffffffff16815260200190815260200160002060008282546125f29190613d36565b925050819055508273ffffffffffffffffffffffffffffffffffffffff168473ffffffffffffffffffffffffffffffffffffffff167fddf252ad1be2c89b69c2b068fc378daa952ba7f163c4a11628f55a4df523b3ef84604051612656919061337c565b60405180910390a350505050565b6000808273ffffffffffffffffffffffffffffffffffffffff163b119050919050565b600060019054906101000a900460ff166126d6576040517f08c379a00000000000000000000000000000000000000000000000000000000081526004016126cd906143f8565b60405180910390fd5b6126e76126e161236a565b88612a7d565b85603690805190602001906126fd92919061306c565b50846037908051906020019061271492919061306c565b5083603c60006101000a81548173ffffffffffffffffffffffffffffffffffffffff021916908373ffffffffffffffffffffffffffffffffffffffff16021790555082603960006101000a81548173ffffffffffffffffffffffffffffffffffffffff021916908373ffffffffffffffffffffffffffffffffffffffff1602179055506000603a60006101000a81548173ffffffffffffffffffffffffffffffffffffffff021916908373ffffffffffffffffffffffffffffffffffffffff1602179055506000603b8190555081603d819055506000603e8190555080603f60016101000a81548173ffffffffffffffffffffffffffffffffffffffff021916908373ffffffffffffffffffffffffffffffffffffffff1602179055506001603f60006101000a81548160ff02191690831515021790555050505050505050565b600060019054906101000a900460ff166128a4576040517f08c379a000000000000000000000000000000000000000000000000000000000815260040161289b906143f8565b60405180910390fd5b565b6128b08282611412565b6129835760016072600084815260200190815260200160002060000160008373ffffffffffffffffffffffffffffffffffffffff1673ffffffffffffffffffffffffffffffffffffffff16815260200190815260200160002060006101000a81548160ff02191690831515021790555061292861236a565b73ffffffffffffffffffffffffffffffffffffffff168173ffffffffffffffffffffffffffffffffffffffff16837f2f8788117e7eff1d82e926ec794901d17c78024a50270940304540a733656f0d60405160405180910390a45b5050565b6129988161299361236a565b612d7e565b50565b6129a58282611412565b15612a795760006072600084815260200190815260200160002060000160008373ffffffffffffffffffffffffffffffffffffffff1673ffffffffffffffffffffffffffffffffffffffff16815260200190815260200160002060006101000a81548160ff021916908315150217905550612a1e61236a565b73ffffffffffffffffffffffffffffffffffffffff168173ffffffffffffffffffffffffffffffffffffffff16837ff6391f5c32d9c69d2a47ea670b442974b53935d1edc7fd64eb21e047a839171b60405160405180910390a45b5050565b600073ffffffffffffffffffffffffffffffffffffffff168273ffffffffffffffffffffffffffffffffffffffff161415612aed576040517f08c379a0000000000000000000000000000000000000000000000000000000008152600401612ae490614464565b60405180910390fd5b8060356000828254612aff9190613d36565b9250508190555080603360008473ffffffffffffffffffffffffffffffffffffffff1673ffffffffffffffffffffffffffffffffffffffff168152602001908152602001600020600082825401925050819055508173ffffffffffffffffffffffffffffffffffffffff16600073ffffffffffffffffffffffffffffffffffffffff167fddf252ad1be2c89b69c2b068fc378daa952ba7f163c4a11628f55a4df523b3ef83604051612bb1919061337c565b60405180910390a35050565b600073ffffffffffffffffffffffffffffffffffffffff168273ffffffffffffffffffffffffffffffffffffffff161415612c2d576040517f08c379a0000000000000000000000000000000000000000000000000000000008152600401612c24906144f6565b60405180910390fd5b6000603360008473ffffffffffffffffffffffffffffffffffffffff1673ffffffffffffffffffffffffffffffffffffffff16815260200190815260200160002054905081811015612cb4576040517f08c379a0000000000000000000000000000000000000000000000000000000008152600401612cab90614588565b60405180910390fd5b818103603360008573ffffffffffffffffffffffffffffffffffffffff1673ffffffffffffffffffffffffffffffffffffffff168152602001908152602001600020819055508160356000828254612d0c9190613ab0565b92505081905550600073ffffffffffffffffffffffffffffffffffffffff168373ffffffffffffffffffffffffffffffffffffffff167fddf252ad1be2c89b69c2b068fc378daa952ba7f163c4a11628f55a4df523b3ef84604051612d71919061337c565b60405180910390a3505050565b612d888282611412565b612dff57612d9581612e03565b612da38360001c6020612e30565b604051602001612db492919061467c565b6040516020818303038152906040526040517f08c379a0000000000000000000000000000000000000000000000000000000008152600401612df69190613277565b60405180910390fd5b5050565b6060612e298273ffffffffffffffffffffffffffffffffffffffff16601460ff16612e30565b9050919050565b606060006002836002612e4391906146b6565b612e4d9190613d36565b67ffffffffffffffff811115612e6657612e6561375e565b5b6040519080825280601f01601f191660200182016040528015612e985781602001600182028036833780820191505090505b5090507f300000000000000000000000000000000000000000000000000000000000000081600081518110612ed057612ecf613e64565b5b60200101907effffffffffffffffffffffffffffffffffffffffffffffffffffffffffffff1916908160001a9053507f780000000000000000000000000000000000000000000000000000000000000081600181518110612f3457612f33613e64565b5b60200101907effffffffffffffffffffffffffffffffffffffffffffffffffffffffffffff1916908160001a90535060006001846002612f7491906146b6565b612f7e9190613d36565b90505b600181111561301e577f3031323334353637383961626364656600000000000000000000000000000000600f861660108110612fc057612fbf613e64565b5b1a60f81b828281518110612fd757612fd6613e64565b5b60200101907effffffffffffffffffffffffffffffffffffffffffffffffffffffffffffff1916908160001a905350600485901c94508061301790614710565b9050612f81565b5060008414613062576040517f08c379a000000000000000000000000000000000000000000000000000000000815260040161305990614786565b60405180910390fd5b8091505092915050565b82805461307890613941565b90600052602060002090601f01602090048101928261309a57600085556130e1565b82601f106130b357805160ff19168380011785556130e1565b828001600101855582156130e1579182015b828111156130e05782518255916020019190600101906130c5565b5b5090506130ee91906130f2565b5090565b5b8082111561310b5760008160009055506001016130f3565b5090565b6000604051905090565b600080fd5b600080fd5b60007fffffffff0000000000000000000000000000000000000000000000000000000082169050919050565b61315881613123565b811461316357600080fd5b50565b6000813590506131758161314f565b92915050565b60006020828403121561319157613190613119565b5b600061319f84828501613166565b91505092915050565b60008115159050919050565b6131bd816131a8565b82525050565b60006020820190506131d860008301846131b4565b92915050565b600081519050919050565b600082825260208201905092915050565b60005b838110156132185780820151818401526020810190506131fd565b83811115613227576000848401525b50505050565b6000601f19601f8301169050919050565b6000613249826131de565b61325381856131e9565b93506132638185602086016131fa565b61326c8161322d565b840191505092915050565b60006020820190508181036000830152613291818461323e565b905092915050565b600073ffffffffffffffffffffffffffffffffffffffff82169050919050565b60006132c482613299565b9050919050565b6132d4816132b9565b81146132df57600080fd5b50565b6000813590506132f1816132cb565b92915050565b6000819050919050565b61330a816132f7565b811461331557600080fd5b50565b60008135905061332781613301565b92915050565b6000806040838503121561334457613343613119565b5b6000613352858286016132e2565b925050602061336385828601613318565b9150509250929050565b613376816132f7565b82525050565b6000602082019050613391600083018461336d565b92915050565b6000806000606084860312156133b0576133af613119565b5b60006133be868287016132e2565b93505060206133cf868287016132e2565b92505060406133e086828701613318565b9150509250925092565b6000819050919050565b6133fd816133ea565b811461340857600080fd5b50565b60008135905061341a816133f4565b92915050565b60006020828403121561343657613435613119565b5b60006134448482850161340b565b91505092915050565b613456816133ea565b82525050565b6000602082019050613471600083018461344d565b92915050565b600080600080600060a0868803121561349357613492613119565b5b60006134a188828901613318565b95505060206134b2888289016132e2565b94505060406134c3888289016132e2565b93505060606134d488828901613318565b92505060806134e5888289016132e2565b9150509295509295909350565b60006020828403121561350857613507613119565b5b6000613516848285016132e2565b91505092915050565b6000806040838503121561353657613535613119565b5b60006135448582860161340b565b9250506020613555858286016132e2565b9150509250929050565b600060ff82169050919050565b6135758161355f565b82525050565b6000602082019050613590600083018461356c565b92915050565b6000819050919050565b60006135bb6135b66135b184613299565b613596565b613299565b9050919050565b60006135cd826135a0565b9050919050565b60006135df826135c2565b9050919050565b6135ef816135d4565b82525050565b600060208201905061360a60008301846135e6565b92915050565b60006020828403121561362657613625613119565b5b600061363484828501613318565b91505092915050565b613646816132b9565b82525050565b6000602082019050613661600083018461363d565b92915050565b6000806040838503121561367e5761367d613119565b5b600061368c858286016132e2565b925050602061369d8582860161340b565b9150509250929050565b600080fd5b600080fd5b600080fd5b60008083601f8401126136cc576136cb6136a7565b5b8235905067ffffffffffffffff8111156136e9576136e86136ac565b5b602083019150836020820283011115613705576137046136b1565b5b9250929050565b6000806020838503121561372357613722613119565b5b600083013567ffffffffffffffff8111156137415761374061311e565b5b61374d858286016136b6565b92509250509250929050565b600080fd5b7f4e487b7100000000000000000000000000000000000000000000000000000000600052604160045260246000fd5b6137968261322d565b810181811067ffffffffffffffff821117156137b5576137b461375e565b5b80604052505050565b60006137c861310f565b90506137d4828261378d565b919050565b600067ffffffffffffffff8211156137f4576137f361375e565b5b6137fd8261322d565b9050602081019050919050565b82818337600083830152505050565b600061382c613827846137d9565b6137be565b90508281526020810184848401111561384857613847613759565b5b61385384828561380a565b509392505050565b600082601f8301126138705761386f6136a7565b5b8135613880848260208601613819565b91505092915050565b60006020828403121561389f5761389e613119565b5b600082013567ffffffffffffffff8111156138bd576138bc61311e565b5b6138c98482850161385b565b91505092915050565b600080604083850312156138e9576138e8613119565b5b60006138f7858286016132e2565b9250506020613908858286016132e2565b9150509250929050565b7f4e487b7100000000000000000000000000000000000000000000000000000000600052602260045260246000fd5b6000600282049050600182168061395957607f821691505b6020821081141561396d5761396c613912565b5b50919050565b6000606082019050613988600083018661363d565b613995602083018561363d565b6139a2604083018461336d565b949350505050565b60006080820190506139bf600083018761363d565b6139cc602083018661363d565b6139d9604083018561363d565b6139e6606083018461336d565b95945050505050565b7f4c45524332303a207472616e7366657220616d6f756e7420657863656564732060008201527f616c6c6f77616e63650000000000000000000000000000000000000000000000602082015250565b6000613a4b6029836131e9565b9150613a56826139ef565b604082019050919050565b60006020820190508181036000830152613a7a81613a3e565b9050919050565b7f4e487b7100000000000000000000000000000000000000000000000000000000600052601160045260246000fd5b6000613abb826132f7565b9150613ac6836132f7565b925082821015613ad957613ad8613a81565b5b828203905092915050565b7f496e697469616c697a61626c653a20636f6e747261637420697320616c72656160008201527f647920696e697469616c697a6564000000000000000000000000000000000000602082015250565b6000613b40602e836131e9565b9150613b4b82613ae4565b604082019050919050565b60006020820190508181036000830152613b6f81613b33565b9050919050565b6000819050919050565b6000613b9b613b96613b9184613b76565b613596565b61355f565b9050919050565b613bab81613b80565b82525050565b6000602082019050613bc66000830184613ba2565b92915050565b7f4c45524332303a204d757374206265207265636f766572792061646d696e0000600082015250565b6000613c02601e836131e9565b9150613c0d82613bcc565b602082019050919050565b60006020820190508181036000830152613c3181613bf5565b9050919050565b7f4c45524332303a2043616e6e6f74207365742073616d65206164647265737300600082015250565b6000613c6e601f836131e9565b9150613c7982613c38565b602082019050919050565b60006020820190508181036000830152613c9d81613c61565b9050919050565b7f416363657373436f6e74726f6c3a2063616e206f6e6c792072656e6f756e636560008201527f20726f6c657320666f722073656c660000000000000000000000000000000000602082015250565b6000613d00602f836131e9565b9150613d0b82613ca4565b604082019050919050565b60006020820190508181036000830152613d2f81613cf3565b9050919050565b6000613d41826132f7565b9150613d4c836132f7565b9250827fffffffffffffffffffffffffffffffffffffffffffffffffffffffffffffffff03821115613d8157613d80613a81565b5b828201905092915050565b7f4c45524332303a204c6f73736c65737320616c7265616479206f6e0000000000600082015250565b6000613dc2601b836131e9565b9150613dcd82613d8c565b602082019050919050565b60006020820190508181036000830152613df181613db5565b9050919050565b7f4c45524332303a204f6e6c79206c6f73736c65737320636f6e74726163740000600082015250565b6000613e2e601e836131e9565b9150613e3982613df8565b602082019050919050565b60006020820190508181036000830152613e5d81613e21565b9050919050565b7f4e487b7100000000000000000000000000000000000000000000000000000000600052603260045260246000fd5b6000613e9e826132f7565b91507fffffffffffffffffffffffffffffffffffffffffffffffffffffffffffffffff821415613ed157613ed0613a81565b5b600182019050919050565b7f4c45524332303a2064656372656173656420616c6c6f77616e63652062656c6f60008201527f77207a65726f0000000000000000000000000000000000000000000000000000602082015250565b6000613f386026836131e9565b9150613f4382613edc565b604082019050919050565b60006020820190508181036000830152613f6781613f2b565b9050919050565b7f4c45524332303a205475726e4f6666206e6f742070726f706f73656400000000600082015250565b6000613fa4601c836131e9565b9150613faf82613f6e565b602082019050919050565b60006020820190508181036000830152613fd381613f97565b9050919050565b7f4c45524332303a2054696d65206c6f636b20696e2070726f6772657373000000600082015250565b6000614010601d836131e9565b915061401b82613fda565b602082019050919050565b6000602082019050818103600083015261403f81614003565b9050919050565b7f4c45524332303a204d7573742062652063616e64697461746500000000000000600082015250565b600061407c6019836131e9565b915061408782614046565b602082019050919050565b600060208201905081810360008301526140ab8161406f565b9050919050565b7f4c45524332303a20496e76616c6964206b657900000000000000000000000000600082015250565b60006140e86013836131e9565b91506140f3826140b2565b602082019050919050565b60006020820190508181036000830152614117816140db565b9050919050565b7f4c45524332303a205475726e4f666620616c72656164792070726f706f736564600082015250565b60006141546020836131e9565b915061415f8261411e565b602082019050919050565b6000602082019050818103600083015261418381614147565b9050919050565b7f4c45524332303a204c6f73736c65737320616c7265616479206f666600000000600082015250565b60006141c0601c836131e9565b91506141cb8261418a565b602082019050919050565b600060208201905081810360008301526141ef816141b3565b9050919050565b7f4c45524332303a204d75737420626520636f6e74726f6c6c65722061646d696e600082015250565b600061422c6020836131e9565b9150614237826141f6565b602082019050919050565b6000602082019050818103600083015261425b8161421f565b9050919050565b7f4c45524332303a207472616e736665722066726f6d20746865207a65726f206160008201527f6464726573730000000000000000000000000000000000000000000000000000602082015250565b60006142be6026836131e9565b91506142c982614262565b604082019050919050565b600060208201905081810360008301526142ed816142b1565b9050919050565b7f4c45524332303a207472616e7366657220616d6f756e7420657863656564732060008201527f62616c616e636500000000000000000000000000000000000000000000000000602082015250565b60006143506027836131e9565b915061435b826142f4565b604082019050919050565b6000602082019050818103600083015261437f81614343565b9050919050565b7f496e697469616c697a61626c653a20636f6e7472616374206973206e6f74206960008201527f6e697469616c697a696e67000000000000000000000000000000000000000000602082015250565b60006143e2602b836131e9565b91506143ed82614386565b604082019050919050565b60006020820190508181036000830152614411816143d5565b9050919050565b7f4c45524332303a206d696e7420746f20746865207a65726f2061646472657373600082015250565b600061444e6020836131e9565b915061445982614418565b602082019050919050565b6000602082019050818103600083015261447d81614441565b9050919050565b7f45524332303a206275726e2066726f6d20746865207a65726f2061646472657360008201527f7300000000000000000000000000000000000000000000000000000000000000602082015250565b60006144e06021836131e9565b91506144eb82614484565b604082019050919050565b6000602082019050818103600083015261450f816144d3565b9050919050565b7f45524332303a206275726e20616d6f756e7420657863656564732062616c616e60008201527f6365000000000000000000000000000000000000000000000000000000000000602082015250565b60006145726022836131e9565b915061457d82614516565b604082019050919050565b600060208201905081810360008301526145a181614565565b9050919050565b600081905092915050565b7f416363657373436f6e74726f6c3a206163636f756e7420000000000000000000600082015250565b60006145e96017836145a8565b91506145f4826145b3565b601782019050919050565b600061460a826131de565b61461481856145a8565b93506146248185602086016131fa565b80840191505092915050565b7f206973206d697373696e6720726f6c6520000000000000000000000000000000600082015250565b60006146666011836145a8565b915061467182614630565b601182019050919050565b6000614687826145dc565b915061469382856145ff565b915061469e82614659565b91506146aa82846145ff565b91508190509392505050565b60006146c1826132f7565b91506146cc836132f7565b9250817fffffffffffffffffffffffffffffffffffffffffffffffffffffffffffffffff048311821515161561470557614704613a81565b5b828202905092915050565b600061471b826132f7565b9150600082141561472f5761472e613a81565b5b600182039050919050565b7f537472696e67733a20686578206c656e67746820696e73756666696369656e74600082015250565b60006147706020836131e9565b915061477b8261473a565b602082019050919050565b6000602082019050818103600083015261479f81614763565b905091905056fea2646970667358221220b96c060bd02aad2cc32ffbb16b9d0ab57e172ba5a8b876127928c15ecae5f62764736f6c63430008080033",
  "immutableReferences": {},
  "source": "// SPDX-License-Identifier: GPLv3\r\npragma solidity ^0.8.0;//0.8.4;\r\n\r\nimport \"@openzeppelin/contracts-upgradeable/token/ERC20/extensions/draft-ERC20PermitUpgradeable.sol\";\r\nimport \"@openzeppelin/contracts-upgradeable/access/AccessControlUpgradeable.sol\";\r\nimport \"@openzeppelin/contracts-upgradeable/proxy/utils/Initializable.sol\";\r\nimport \"./LERC20Upgradable.sol\";\r\n\r\n/**\r\n * @title DEI Stablecoin\r\n * @author DEUS Finance\r\n * @notice Multichain stablecoin\r\n */\r\ncontract DEIStablecoin is\r\n    Initializable,\r\n    LERC20Upgradable,\r\n    AccessControlUpgradeable\r\n{\r\n    bytes32 public constant MINTER_ROLE = keccak256(\"MINTER_ROLE\");\r\n    bytes32 public constant BURNER_ROLE = keccak256(\"BURNER_ROLE\");\r\n\r\n    function initialize(\r\n        uint256 totalSupply,\r\n        address admin,\r\n        address recoveryAdmin,\r\n        uint256 timelockPeriod,\r\n        address lossless\r\n    ) public initializer {\r\n        __LERC20_init(\r\n            totalSupply,\r\n            \"DEI\",\r\n            \"DEI\",\r\n            admin,\r\n            recoveryAdmin,\r\n            timelockPeriod,\r\n            lossless\r\n        );\r\n        __AccessControl_init();\r\n        _grantRole(DEFAULT_ADMIN_ROLE, admin);\r\n    }\r\n\r\n    function mint(address to, uint256 amount) external onlyRole(MINTER_ROLE) {\r\n        _mint(to, amount);\r\n    }\r\n}\r\n",
  "sourcePath": "/home/tc//230507 dei/code/contracts/LDEI/LDEI.sol",
  "compiler": {
    "name": "solc",
    "version": "0.8.8+commit.dddeac2f.Emscripten.clang"
  },
  "schemaVersion": "3.4.14",
  "updatedAt": "2023-06-04T15:26:13.161Z",
  "networkType": "ethereum",
  "devdoc": {
    "author": "DEUS Finance",
    "kind": "dev",
    "methods": {
      "getRoleAdmin(bytes32)": {
        "details": "Returns the admin role that controls `role`. See {grantRole} and {revokeRole}. To change a role's admin, use {_setRoleAdmin}."
      },
      "grantRole(bytes32,address)": {
        "details": "Grants `role` to `account`. If `account` had not been already granted `role`, emits a {RoleGranted} event. Requirements: - the caller must have ``role``'s admin role. May emit a {RoleGranted} event."
      },
      "hasRole(bytes32,address)": {
        "details": "Returns `true` if `account` has been granted `role`."
      },
      "renounceRole(bytes32,address)": {
        "details": "Revokes `role` from the calling account. Roles are often managed via {grantRole} and {revokeRole}: this function's purpose is to provide a mechanism for accounts to lose their privileges if they are compromised (such as when a trusted device is misplaced). If the calling account had been revoked `role`, emits a {RoleRevoked} event. Requirements: - the caller must be `account`. May emit a {RoleRevoked} event."
      },
      "revokeRole(bytes32,address)": {
        "details": "Revokes `role` from `account`. If `account` had been granted `role`, emits a {RoleRevoked} event. Requirements: - the caller must have ``role``'s admin role. May emit a {RoleRevoked} event."
      },
      "supportsInterface(bytes4)": {
        "details": "See {IERC165-supportsInterface}."
      }
    },
    "title": "DEI Stablecoin",
    "version": 1
  },
  "userdoc": {
    "kind": "user",
    "methods": {},
    "notice": "Multichain stablecoin",
    "version": 1
  }
}