{
  "contractName": "LERC20Upgradable",
  "abi": [
    {
      "anonymous": false,
      "inputs": [
        {
          "indexed": true,
          "internalType": "address",
          "name": "_owner",
          "type": "address"
        },
        {
          "indexed": true,
          "internalType": "address",
          "name": "_spender",
          "type": "address"
        },
        {
          "indexed": false,
          "internalType": "uint256",
          "name": "_value",
          "type": "uint256"
        }
      ],
      "name": "Approval",
      "type": "event"
    },
    {
      "anonymous": false,
      "inputs": [
        {
          "indexed": false,
          "internalType": "uint8",
          "name": "version",
          "type": "uint8"
        }
      ],
      "name": "Initialized",
      "type": "event"
    },
    {
      "anonymous": false,
      "inputs": [],
      "name": "LosslessOff",
      "type": "event"
    },
    {
      "anonymous": false,
      "inputs": [],
      "name": "LosslessOn",
      "type": "event"
    },
    {
      "anonymous": false,
      "inputs": [
        {
          "indexed": false,
          "internalType": "uint256",
          "name": "_turnOffDate",
          "type": "uint256"
        }
      ],
      "name": "LosslessTurnOffProposal",
      "type": "event"
    },
    {
      "anonymous": false,
      "inputs": [
        {
          "indexed": true,
          "internalType": "address",
          "name": "_newAdmin",
          "type": "address"
        }
      ],
      "name": "NewAdmin",
      "type": "event"
    },
    {
      "anonymous": false,
      "inputs": [
        {
          "indexed": false,
          "internalType": "address",
          "name": "lss",
          "type": "address"
        }
      ],
      "name": "NewConroller",
      "type": "event"
    },
    {
      "anonymous": false,
      "inputs": [
        {
          "indexed": true,
          "internalType": "address",
          "name": "_newAdmin",
          "type": "address"
        }
      ],
      "name": "NewRecoveryAdmin",
      "type": "event"
    },
    {
      "anonymous": false,
      "inputs": [
        {
          "indexed": true,
          "internalType": "address",
          "name": "_candidate",
          "type": "address"
        }
      ],
      "name": "NewRecoveryAdminProposal",
      "type": "event"
    },
    {
      "anonymous": false,
      "inputs": [
        {
          "indexed": false,
          "internalType": "uint256",
          "name": "_newTimelockPeriod",
          "type": "uint256"
        }
      ],
      "name": "NewTimelockPeriod",
      "type": "event"
    },
    {
      "anonymous": false,
      "inputs": [
        {
          "indexed": true,
          "internalType": "address",
          "name": "_from",
          "type": "address"
        },
        {
          "indexed": true,
          "internalType": "address",
          "name": "_to",
          "type": "address"
        },
        {
          "indexed": false,
          "internalType": "uint256",
          "name": "_value",
          "type": "uint256"
        }
      ],
      "name": "Transfer",
      "type": "event"
    },
    {
      "inputs": [],
      "name": "admin",
      "outputs": [
        {
          "internalType": "address",
          "name": "",
          "type": "address"
        }
      ],
      "stateMutability": "view",
      "type": "function"
    },
    {
      "inputs": [],
      "name": "isLosslessOn",
      "outputs": [
        {
          "internalType": "bool",
          "name": "",
          "type": "bool"
        }
      ],
      "stateMutability": "view",
      "type": "function"
    },
    {
      "inputs": [],
      "name": "lossless",
      "outputs": [
        {
          "internalType": "contract ILssController",
          "name": "",
          "type": "address"
        }
      ],
      "stateMutability": "view",
      "type": "function"
    },
    {
      "inputs": [],
      "name": "losslessTurnOffTimestamp",
      "outputs": [
        {
          "internalType": "uint256",
          "name": "",
          "type": "uint256"
        }
      ],
      "stateMutability": "view",
      "type": "function"
    },
    {
      "inputs": [],
      "name": "lssControllerAdmin",
      "outputs": [
        {
          "internalType": "address",
          "name": "",
          "type": "address"
        }
      ],
      "stateMutability": "view",
      "type": "function"
    },
    {
      "inputs": [],
      "name": "recoveryAdmin",
      "outputs": [
        {
          "internalType": "address",
          "name": "",
          "type": "address"
        }
      ],
      "stateMutability": "view",
      "type": "function"
    },
    {
      "inputs": [],
      "name": "timelockPeriod",
      "outputs": [
        {
          "internalType": "uint256",
          "name": "",
          "type": "uint256"
        }
      ],
      "stateMutability": "view",
      "type": "function"
    },
    {
      "inputs": [
        {
          "internalType": "address[]",
          "name": "from",
          "type": "address[]"
        }
      ],
      "name": "transferOutBlacklistedFunds",
      "outputs": [],
      "stateMutability": "nonpayable",
      "type": "function"
    },
    {
      "inputs": [
        {
          "internalType": "address",
          "name": "newAdmin",
          "type": "address"
        }
      ],
      "name": "setLosslessAdmin",
      "outputs": [],
      "stateMutability": "nonpayable",
      "type": "function"
    },
    {
      "inputs": [
        {
          "internalType": "uint256",
          "name": "newTimelockPeriod",
          "type": "uint256"
        }
      ],
      "name": "setTimelockPeriod",
      "outputs": [],
      "stateMutability": "nonpayable",
      "type": "function"
    },
    {
      "inputs": [
        {
          "internalType": "address",
          "name": "candidate",
          "type": "address"
        },
        {
          "internalType": "bytes32",
          "name": "keyHash",
          "type": "bytes32"
        }
      ],
      "name": "transferRecoveryAdminOwnership",
      "outputs": [],
      "stateMutability": "nonpayable",
      "type": "function"
    },
    {
      "inputs": [
        {
          "internalType": "bytes",
          "name": "key",
          "type": "bytes"
        }
      ],
      "name": "acceptRecoveryAdminOwnership",
      "outputs": [],
      "stateMutability": "nonpayable",
      "type": "function"
    },
    {
      "inputs": [],
      "name": "proposeLosslessTurnOff",
      "outputs": [],
      "stateMutability": "nonpayable",
      "type": "function"
    },
    {
      "inputs": [],
      "name": "executeLosslessTurnOff",
      "outputs": [],
      "stateMutability": "nonpayable",
      "type": "function"
    },
    {
      "inputs": [],
      "name": "executeLosslessTurnOn",
      "outputs": [],
      "stateMutability": "nonpayable",
      "type": "function"
    },
    {
      "inputs": [],
      "name": "getAdmin",
      "outputs": [
        {
          "internalType": "address",
          "name": "",
          "type": "address"
        }
      ],
      "stateMutability": "view",
      "type": "function"
    },
    {
      "inputs": [
        {
          "internalType": "address",
          "name": "lss",
          "type": "address"
        }
      ],
      "name": "setLssController",
      "outputs": [],
      "stateMutability": "nonpayable",
      "type": "function"
    },
    {
      "inputs": [],
      "name": "name",
      "outputs": [
        {
          "internalType": "string",
          "name": "",
          "type": "string"
        }
      ],
      "stateMutability": "view",
      "type": "function"
    },
    {
      "inputs": [],
      "name": "symbol",
      "outputs": [
        {
          "internalType": "string",
          "name": "",
          "type": "string"
        }
      ],
      "stateMutability": "view",
      "type": "function"
    },
    {
      "inputs": [],
      "name": "decimals",
      "outputs": [
        {
          "internalType": "uint8",
          "name": "",
          "type": "uint8"
        }
      ],
      "stateMutability": "view",
      "type": "function"
    },
    {
      "inputs": [],
      "name": "totalSupply",
      "outputs": [
        {
          "internalType": "uint256",
          "name": "",
          "type": "uint256"
        }
      ],
      "stateMutability": "view",
      "type": "function"
    },
    {
      "inputs": [
        {
          "internalType": "address",
          "name": "account",
          "type": "address"
        }
      ],
      "name": "balanceOf",
      "outputs": [
        {
          "internalType": "uint256",
          "name": "",
          "type": "uint256"
        }
      ],
      "stateMutability": "view",
      "type": "function"
    },
    {
      "inputs": [
        {
          "internalType": "address",
          "name": "recipient",
          "type": "address"
        },
        {
          "internalType": "uint256",
          "name": "amount",
          "type": "uint256"
        }
      ],
      "name": "transfer",
      "outputs": [
        {
          "internalType": "bool",
          "name": "",
          "type": "bool"
        }
      ],
      "stateMutability": "nonpayable",
      "type": "function"
    },
    {
      "inputs": [
        {
          "internalType": "address",
          "name": "owner",
          "type": "address"
        },
        {
          "internalType": "address",
          "name": "spender",
          "type": "address"
        }
      ],
      "name": "allowance",
      "outputs": [
        {
          "internalType": "uint256",
          "name": "",
          "type": "uint256"
        }
      ],
      "stateMutability": "view",
      "type": "function"
    },
    {
      "inputs": [
        {
          "internalType": "address",
          "name": "spender",
          "type": "address"
        },
        {
          "internalType": "uint256",
          "name": "amount",
          "type": "uint256"
        }
      ],
      "name": "approve",
      "outputs": [
        {
          "internalType": "bool",
          "name": "",
          "type": "bool"
        }
      ],
      "stateMutability": "nonpayable",
      "type": "function"
    },
    {
      "inputs": [
        {
          "internalType": "address",
          "name": "sender",
          "type": "address"
        },
        {
          "internalType": "address",
          "name": "recipient",
          "type": "address"
        },
        {
          "internalType": "uint256",
          "name": "amount",
          "type": "uint256"
        }
      ],
      "name": "transferFrom",
      "outputs": [
        {
          "internalType": "bool",
          "name": "",
          "type": "bool"
        }
      ],
      "stateMutability": "nonpayable",
      "type": "function"
    },
    {
      "inputs": [
        {
          "internalType": "address",
          "name": "spender",
          "type": "address"
        },
        {
          "internalType": "uint256",
          "name": "addedValue",
          "type": "uint256"
        }
      ],
      "name": "increaseAllowance",
      "outputs": [
        {
          "internalType": "bool",
          "name": "",
          "type": "bool"
        }
      ],
      "stateMutability": "nonpayable",
      "type": "function"
    },
    {
      "inputs": [
        {
          "internalType": "address",
          "name": "spender",
          "type": "address"
        },
        {
          "internalType": "uint256",
          "name": "subtractedValue",
          "type": "uint256"
        }
      ],
      "name": "decreaseAllowance",
      "outputs": [
        {
          "internalType": "bool",
          "name": "",
          "type": "bool"
        }
      ],
      "stateMutability": "nonpayable",
      "type": "function"
    },
    {
      "inputs": [
        {
          "internalType": "uint256",
          "name": "amount",
          "type": "uint256"
        }
      ],
      "name": "burn",
      "outputs": [],
      "stateMutability": "nonpayable",
      "type": "function"
    },
    {
      "inputs": [
        {
          "internalType": "address",
          "name": "account",
          "type": "address"
        },
        {
          "internalType": "uint256",
          "name": "amount",
          "type": "uint256"
        }
      ],
      "name": "burnFrom",
      "outputs": [],
      "stateMutability": "nonpayable",
      "type": "function"
    }
  ],
  "bytecode": "0x608060405234801561001057600080fd5b50613271806100206000396000f3fe608060405234801561001057600080fd5b50600436106101da5760003560e01c806370a0823111610104578063b38fe957116100a2578063dd62ed3e11610071578063dd62ed3e1461050f578063ecb81f191461053f578063f55c980f1461055b578063f851a44014610577576101da565b8063b38fe957146104c1578063b5c22877146104cb578063ccfa214f146104e7578063d6e242b814610505576101da565b8063936af911116100de578063936af9111461042757806395d89b4114610443578063a457c2d714610461578063a9059cbb14610491576101da565b806370a08231146103bf57806379cc6790146103ef57806393310ffe1461040b576101da565b806334f6ebf51161017c5780635f6529a31161014b5780635f6529a31461034757806361086b00146103655780636b4ff41d146103835780636e9960c3146103a1576101da565b806334f6ebf5146102d357806339509351146102f157806342966c68146103215780635b8a194a1461033d576101da565b806323b872dd116101b857806323b872dd1461024b5780632baa3c9e1461027b5780632ecaf67514610297578063313ce567146102b5576101da565b806306fdde03146101df578063095ea7b3146101fd57806318160ddd1461022d575b600080fd5b6101e7610595565b6040516101f4919061224a565b60405180910390f35b61021760048036038101906102129190612314565b610627565b604051610224919061236f565b60405180910390f35b6102356106f7565b6040516102429190612399565b60405180910390f35b610265600480360381019061026091906123b4565b610701565b604051610272919061236f565b60405180910390f35b61029560048036038101906102909190612407565b6108b8565b005b61029f610a67565b6040516102ac9190612399565b60405180910390f35b6102bd610a6d565b6040516102ca9190612450565b60405180910390f35b6102db610a76565b6040516102e891906124ca565b60405180910390f35b61030b60048036038101906103069190612314565b610a9c565b604051610318919061236f565b60405180910390f35b61033b600480360381019061033691906124e5565b610bfa565b005b610345610c0e565b005b61034f610d46565b60405161035c9190612521565b60405180910390f35b61036d610d6c565b60405161037a9190612399565b60405180910390f35b61038b610d72565b6040516103989190612521565b60405180910390f35b6103a9610d98565b6040516103b69190612521565b60405180910390f35b6103d960048036038101906103d49190612407565b610dc2565b6040516103e69190612399565b60405180910390f35b61040960048036038101906104049190612314565b610e0b565b005b61042560048036038101906104209190612572565b610ebf565b005b610441600480360381019061043c9190612617565b610fe5565b005b61044b61126e565b604051610458919061224a565b60405180910390f35b61047b60048036038101906104769190612314565b611300565b604051610488919061236f565b60405180910390f35b6104ab60048036038101906104a69190612314565b6114a7565b6040516104b8919061236f565b60405180910390f35b6104c9611577565b005b6104e560048036038101906104e09190612794565b6116ea565b005b6104ef6118d9565b6040516104fc919061236f565b60405180910390f35b61050d6118ec565b005b610529600480360381019061052491906127dd565b611a66565b6040516105369190612399565b60405180910390f35b61055960048036038101906105549190612407565b611aed565b005b610575600480360381019061057091906124e5565b611bf8565b005b61057f611cd0565b60405161058c9190612521565b60405180910390f35b6060603680546105a49061284c565b80601f01602080910402602001604051908101604052809291908181526020018280546105d09061284c565b801561061d5780601f106105f25761010080835404028352916020019161061d565b820191906000526020600020905b81548152906001019060200180831161060057829003601f168201915b5050505050905090565b60008282603f60009054906101000a900460ff16156106d957603f60019054906101000a900473ffffffffffffffffffffffffffffffffffffffff1673ffffffffffffffffffffffffffffffffffffffff166347abf3be610686611cf6565b84846040518463ffffffff1660e01b81526004016106a69392919061287e565b600060405180830381600087803b1580156106c057600080fd5b505af11580156106d4573d6000803e3d6000fd5b505050505b6106eb6106e4611cf6565b8686611cfe565b60019250505092915050565b6000603554905090565b6000838383603f60009054906101000a900460ff16156107b657603f60019054906101000a900473ffffffffffffffffffffffffffffffffffffffff1673ffffffffffffffffffffffffffffffffffffffff1663379f5c69610761611cf6565b8585856040518563ffffffff1660e01b815260040161078394939291906128b5565b600060405180830381600087803b15801561079d57600080fd5b505af11580156107b1573d6000803e3d6000fd5b505050505b6000603460008973ffffffffffffffffffffffffffffffffffffffff1673ffffffffffffffffffffffffffffffffffffffff1681526020019081526020016000206000610801611cf6565b73ffffffffffffffffffffffffffffffffffffffff1673ffffffffffffffffffffffffffffffffffffffff16815260200190815260200160002054905085811015610881576040517f08c379a00000000000000000000000000000000000000000000000000000000081526004016108789061296c565b60405180910390fd5b61088c888888611de9565b6108a988610898611cf6565b88846108a491906129bb565b611cfe565b60019450505050509392505050565b603960009054906101000a900473ffffffffffffffffffffffffffffffffffffffff1673ffffffffffffffffffffffffffffffffffffffff166108f9611cf6565b73ffffffffffffffffffffffffffffffffffffffff161461094f576040517f08c379a000000000000000000000000000000000000000000000000000000000815260040161094690612a3b565b60405180910390fd5b603c60009054906101000a900473ffffffffffffffffffffffffffffffffffffffff1673ffffffffffffffffffffffffffffffffffffffff168173ffffffffffffffffffffffffffffffffffffffff1614156109e0576040517f08c379a00000000000000000000000000000000000000000000000000000000081526004016109d790612aa7565b60405180910390fd5b8073ffffffffffffffffffffffffffffffffffffffff167f71614071b88dee5e0b2ae578a9dd7b2ebbe9ae832ba419dc0242cd065a290b6c60405160405180910390a280603c60006101000a81548173ffffffffffffffffffffffffffffffffffffffff021916908373ffffffffffffffffffffffffffffffffffffffff16021790555050565b603d5481565b60006012905090565b603f60019054906101000a900473ffffffffffffffffffffffffffffffffffffffff1681565b60008282603f60009054906101000a900460ff1615610b4e57603f60019054906101000a900473ffffffffffffffffffffffffffffffffffffffff1673ffffffffffffffffffffffffffffffffffffffff1663cf5961bb610afb611cf6565b84846040518463ffffffff1660e01b8152600401610b1b9392919061287e565b600060405180830381600087803b158015610b3557600080fd5b505af1158015610b49573d6000803e3d6000fd5b505050505b610bee610b59611cf6565b868660346000610b67611cf6565b73ffffffffffffffffffffffffffffffffffffffff1673ffffffffffffffffffffffffffffffffffffffff16815260200190815260200160002060008a73ffffffffffffffffffffffffffffffffffffffff1673ffffffffffffffffffffffffffffffffffffffff16815260200190815260200160002054610be99190612ac7565b611cfe565b60019250505092915050565b610c0b610c05611cf6565b82611ff0565b50565b603960009054906101000a900473ffffffffffffffffffffffffffffffffffffffff1673ffffffffffffffffffffffffffffffffffffffff16610c4f611cf6565b73ffffffffffffffffffffffffffffffffffffffff1614610ca5576040517f08c379a0000000000000000000000000000000000000000000000000000000008152600401610c9c90612a3b565b60405180910390fd5b603f60009054906101000a900460ff1615610cf5576040517f08c379a0000000000000000000000000000000000000000000000000000000008152600401610cec90612b69565b60405180910390fd5b6000603e819055506001603f60006101000a81548160ff0219169083151502179055507f1ba3b66404043da8297d0b876fa6464f2cb127edfc6626308046d4503028322b60405160405180910390a1565b603960009054906101000a900473ffffffffffffffffffffffffffffffffffffffff1681565b603e5481565b603860009054906101000a900473ffffffffffffffffffffffffffffffffffffffff1681565b6000603c60009054906101000a900473ffffffffffffffffffffffffffffffffffffffff16905090565b6000603360008373ffffffffffffffffffffffffffffffffffffffff1673ffffffffffffffffffffffffffffffffffffffff168152602001908152602001600020549050919050565b600060346000610e19611cf6565b73ffffffffffffffffffffffffffffffffffffffff1673ffffffffffffffffffffffffffffffffffffffff16815260200190815260200160002060008473ffffffffffffffffffffffffffffffffffffffff1673ffffffffffffffffffffffffffffffffffffffff168152602001908152602001600020549050610eb083610e9f611cf6565b8484610eab91906129bb565b611cfe565b610eba8383611ff0565b505050565b603960009054906101000a900473ffffffffffffffffffffffffffffffffffffffff1673ffffffffffffffffffffffffffffffffffffffff16610f00611cf6565b73ffffffffffffffffffffffffffffffffffffffff1614610f56576040517f08c379a0000000000000000000000000000000000000000000000000000000008152600401610f4d90612a3b565b60405180910390fd5b81603a60006101000a81548173ffffffffffffffffffffffffffffffffffffffff021916908373ffffffffffffffffffffffffffffffffffffffff16021790555080603b819055508173ffffffffffffffffffffffffffffffffffffffff167f6c591da8da2f6e69746d7d9ae61c27ee29fbe303798141b4942ae2aef54274b160405160405180910390a25050565b603f60019054906101000a900473ffffffffffffffffffffffffffffffffffffffff1673ffffffffffffffffffffffffffffffffffffffff16611026611cf6565b73ffffffffffffffffffffffffffffffffffffffff161461107c576040517f08c379a000000000000000000000000000000000000000000000000000000000815260040161107390612bd5565b60405180910390fd5b60008282905090506000805b828110156111ef5760008585838181106110a5576110a4612bf5565b5b90506020020160208101906110ba9190612407565b90506000603360008373ffffffffffffffffffffffffffffffffffffffff1673ffffffffffffffffffffffffffffffffffffffff1681526020019081526020016000205490506000603360008473ffffffffffffffffffffffffffffffffffffffff1673ffffffffffffffffffffffffffffffffffffffff1681526020019081526020016000208190555080846111519190612ac7565b9350603f60019054906101000a900473ffffffffffffffffffffffffffffffffffffffff1673ffffffffffffffffffffffffffffffffffffffff168273ffffffffffffffffffffffffffffffffffffffff167fddf252ad1be2c89b69c2b068fc378daa952ba7f163c4a11628f55a4df523b3ef836040516111d29190612399565b60405180910390a3505080806111e790612c24565b915050611088565b508060336000603f60019054906101000a900473ffffffffffffffffffffffffffffffffffffffff1673ffffffffffffffffffffffffffffffffffffffff1673ffffffffffffffffffffffffffffffffffffffff16815260200190815260200160002060008282546112619190612ac7565b9250508190555050505050565b60606037805461127d9061284c565b80601f01602080910402602001604051908101604052809291908181526020018280546112a99061284c565b80156112f65780601f106112cb576101008083540402835291602001916112f6565b820191906000526020600020905b8154815290600101906020018083116112d957829003601f168201915b5050505050905090565b60008282603f60009054906101000a900460ff16156113b257603f60019054906101000a900473ffffffffffffffffffffffffffffffffffffffff1673ffffffffffffffffffffffffffffffffffffffff1663568c75a961135f611cf6565b84846040518463ffffffff1660e01b815260040161137f9392919061287e565b600060405180830381600087803b15801561139957600080fd5b505af11580156113ad573d6000803e3d6000fd5b505050505b6000603460006113c0611cf6565b73ffffffffffffffffffffffffffffffffffffffff1673ffffffffffffffffffffffffffffffffffffffff16815260200190815260200160002060008773ffffffffffffffffffffffffffffffffffffffff1673ffffffffffffffffffffffffffffffffffffffff1681526020019081526020016000205490508481101561147d576040517f08c379a000000000000000000000000000000000000000000000000000000000815260040161147490612cdf565b60405180910390fd5b61149a611488611cf6565b87878461149591906129bb565b611cfe565b6001935050505092915050565b60008282603f60009054906101000a900460ff161561155957603f60019054906101000a900473ffffffffffffffffffffffffffffffffffffffff1673ffffffffffffffffffffffffffffffffffffffff16631ffb811f611506611cf6565b84846040518463ffffffff1660e01b81526004016115269392919061287e565b600060405180830381600087803b15801561154057600080fd5b505af1158015611554573d6000803e3d6000fd5b505050505b61156b611564611cf6565b8686611de9565b60019250505092915050565b603960009054906101000a900473ffffffffffffffffffffffffffffffffffffffff1673ffffffffffffffffffffffffffffffffffffffff166115b8611cf6565b73ffffffffffffffffffffffffffffffffffffffff161461160e576040517f08c379a000000000000000000000000000000000000000000000000000000000815260040161160590612a3b565b60405180910390fd5b6000603e541415611654576040517f08c379a000000000000000000000000000000000000000000000000000000000815260040161164b90612d4b565b60405180910390fd5b42603e541115611699576040517f08c379a000000000000000000000000000000000000000000000000000000000815260040161169090612db7565b60405180910390fd5b6000603f60006101000a81548160ff0219169083151502179055506000603e819055507f3eb72350c9c7928d31e9ab450bfff2c159434aa4b82658a7d8eae7f109cb4e7b60405160405180910390a1565b603a60009054906101000a900473ffffffffffffffffffffffffffffffffffffffff1673ffffffffffffffffffffffffffffffffffffffff1661172b611cf6565b73ffffffffffffffffffffffffffffffffffffffff1614611781576040517f08c379a000000000000000000000000000000000000000000000000000000000815260040161177890612e23565b60405180910390fd5b603b548180519060200120146117cc576040517f08c379a00000000000000000000000000000000000000000000000000000000081526004016117c390612e8f565b60405180910390fd5b603a60009054906101000a900473ffffffffffffffffffffffffffffffffffffffff1673ffffffffffffffffffffffffffffffffffffffff167fb94bba6936ec7f75ee931dadf6e1a4d66b43d09b6fa0178fb13df9b77fb5841f60405160405180910390a2603a60009054906101000a900473ffffffffffffffffffffffffffffffffffffffff16603960006101000a81548173ffffffffffffffffffffffffffffffffffffffff021916908373ffffffffffffffffffffffffffffffffffffffff1602179055506000603a60006101000a81548173ffffffffffffffffffffffffffffffffffffffff021916908373ffffffffffffffffffffffffffffffffffffffff16021790555050565b603f60009054906101000a900460ff1681565b603960009054906101000a900473ffffffffffffffffffffffffffffffffffffffff1673ffffffffffffffffffffffffffffffffffffffff1661192d611cf6565b73ffffffffffffffffffffffffffffffffffffffff1614611983576040517f08c379a000000000000000000000000000000000000000000000000000000000815260040161197a90612a3b565b60405180910390fd5b6000603e54146119c8576040517f08c379a00000000000000000000000000000000000000000000000000000000081526004016119bf90612efb565b60405180910390fd5b603f60009054906101000a900460ff16611a17576040517f08c379a0000000000000000000000000000000000000000000000000000000008152600401611a0e90612f67565b60405180910390fd5b603d5442611a259190612ac7565b603e819055507f6ca688e6e3ddd707280140b2bf0106afe883689b6c74e68cbd517576dd9c245a603e54604051611a5c9190612399565b60405180910390a1565b6000603460008473ffffffffffffffffffffffffffffffffffffffff1673ffffffffffffffffffffffffffffffffffffffff16815260200190815260200160002060008373ffffffffffffffffffffffffffffffffffffffff1673ffffffffffffffffffffffffffffffffffffffff16815260200190815260200160002054905092915050565b603860009054906101000a900473ffffffffffffffffffffffffffffffffffffffff1673ffffffffffffffffffffffffffffffffffffffff163373ffffffffffffffffffffffffffffffffffffffff1614611b7d576040517f08c379a0000000000000000000000000000000000000000000000000000000008152600401611b7490612fd3565b60405180910390fd5b80603f60016101000a81548173ffffffffffffffffffffffffffffffffffffffff021916908373ffffffffffffffffffffffffffffffffffffffff1602179055507f1968a9e697fb2ee4cd915c5c21cbe088f353ae9129566a31e53d2c8b2fd2575181604051611bed9190612521565b60405180910390a150565b603960009054906101000a900473ffffffffffffffffffffffffffffffffffffffff1673ffffffffffffffffffffffffffffffffffffffff16611c39611cf6565b73ffffffffffffffffffffffffffffffffffffffff1614611c8f576040517f08c379a0000000000000000000000000000000000000000000000000000000008152600401611c8690612a3b565b60405180910390fd5b7fd3fcf9b3a3c0e56c64bbe7d178c180cd10cc7d1d0f96f76fbf30eaf78829fcd481604051611cbe9190612399565b60405180910390a180603d8190555050565b603c60009054906101000a900473ffffffffffffffffffffffffffffffffffffffff1681565b600033905090565b80603460008573ffffffffffffffffffffffffffffffffffffffff1673ffffffffffffffffffffffffffffffffffffffff16815260200190815260200160002060008473ffffffffffffffffffffffffffffffffffffffff1673ffffffffffffffffffffffffffffffffffffffff168152602001908152602001600020819055508173ffffffffffffffffffffffffffffffffffffffff168373ffffffffffffffffffffffffffffffffffffffff167f8c5be1e5ebec7d5bd14f71427d1e84f3dd0314c0f7b2291e5b200ac8c7c3b92583604051611ddc9190612399565b60405180910390a3505050565b600073ffffffffffffffffffffffffffffffffffffffff168373ffffffffffffffffffffffffffffffffffffffff161415611e59576040517f08c379a0000000000000000000000000000000000000000000000000000000008152600401611e5090613065565b60405180910390fd5b6000603360008573ffffffffffffffffffffffffffffffffffffffff1673ffffffffffffffffffffffffffffffffffffffff16815260200190815260200160002054905081811015611ee0576040517f08c379a0000000000000000000000000000000000000000000000000000000008152600401611ed7906130f7565b60405180910390fd5b8181611eec91906129bb565b603360008673ffffffffffffffffffffffffffffffffffffffff1673ffffffffffffffffffffffffffffffffffffffff1681526020019081526020016000208190555081603360008573ffffffffffffffffffffffffffffffffffffffff1673ffffffffffffffffffffffffffffffffffffffff1681526020019081526020016000206000828254611f7e9190612ac7565b925050819055508273ffffffffffffffffffffffffffffffffffffffff168473ffffffffffffffffffffffffffffffffffffffff167fddf252ad1be2c89b69c2b068fc378daa952ba7f163c4a11628f55a4df523b3ef84604051611fe29190612399565b60405180910390a350505050565b600073ffffffffffffffffffffffffffffffffffffffff168273ffffffffffffffffffffffffffffffffffffffff161415612060576040517f08c379a000000000000000000000000000000000000000000000000000000000815260040161205790613189565b60405180910390fd5b6000603360008473ffffffffffffffffffffffffffffffffffffffff1673ffffffffffffffffffffffffffffffffffffffff168152602001908152602001600020549050818110156120e7576040517f08c379a00000000000000000000000000000000000000000000000000000000081526004016120de9061321b565b60405180910390fd5b818103603360008573ffffffffffffffffffffffffffffffffffffffff1673ffffffffffffffffffffffffffffffffffffffff16815260200190815260200160002081905550816035600082825461213f91906129bb565b92505081905550600073ffffffffffffffffffffffffffffffffffffffff168373ffffffffffffffffffffffffffffffffffffffff167fddf252ad1be2c89b69c2b068fc378daa952ba7f163c4a11628f55a4df523b3ef846040516121a49190612399565b60405180910390a3505050565b600081519050919050565b600082825260208201905092915050565b60005b838110156121eb5780820151818401526020810190506121d0565b838111156121fa576000848401525b50505050565b6000601f19601f8301169050919050565b600061221c826121b1565b61222681856121bc565b93506122368185602086016121cd565b61223f81612200565b840191505092915050565b600060208201905081810360008301526122648184612211565b905092915050565b6000604051905090565b600080fd5b600080fd5b600073ffffffffffffffffffffffffffffffffffffffff82169050919050565b60006122ab82612280565b9050919050565b6122bb816122a0565b81146122c657600080fd5b50565b6000813590506122d8816122b2565b92915050565b6000819050919050565b6122f1816122de565b81146122fc57600080fd5b50565b60008135905061230e816122e8565b92915050565b6000806040838503121561232b5761232a612276565b5b6000612339858286016122c9565b925050602061234a858286016122ff565b9150509250929050565b60008115159050919050565b61236981612354565b82525050565b60006020820190506123846000830184612360565b92915050565b612393816122de565b82525050565b60006020820190506123ae600083018461238a565b92915050565b6000806000606084860312156123cd576123cc612276565b5b60006123db868287016122c9565b93505060206123ec868287016122c9565b92505060406123fd868287016122ff565b9150509250925092565b60006020828403121561241d5761241c612276565b5b600061242b848285016122c9565b91505092915050565b600060ff82169050919050565b61244a81612434565b82525050565b60006020820190506124656000830184612441565b92915050565b6000819050919050565b600061249061248b61248684612280565b61246b565b612280565b9050919050565b60006124a282612475565b9050919050565b60006124b482612497565b9050919050565b6124c4816124a9565b82525050565b60006020820190506124df60008301846124bb565b92915050565b6000602082840312156124fb576124fa612276565b5b6000612509848285016122ff565b91505092915050565b61251b816122a0565b82525050565b60006020820190506125366000830184612512565b92915050565b6000819050919050565b61254f8161253c565b811461255a57600080fd5b50565b60008135905061256c81612546565b92915050565b6000806040838503121561258957612588612276565b5b6000612597858286016122c9565b92505060206125a88582860161255d565b9150509250929050565b600080fd5b600080fd5b600080fd5b60008083601f8401126125d7576125d66125b2565b5b8235905067ffffffffffffffff8111156125f4576125f36125b7565b5b6020830191508360208202830111156126105761260f6125bc565b5b9250929050565b6000806020838503121561262e5761262d612276565b5b600083013567ffffffffffffffff81111561264c5761264b61227b565b5b612658858286016125c1565b92509250509250929050565b600080fd5b7f4e487b7100000000000000000000000000000000000000000000000000000000600052604160045260246000fd5b6126a182612200565b810181811067ffffffffffffffff821117156126c0576126bf612669565b5b80604052505050565b60006126d361226c565b90506126df8282612698565b919050565b600067ffffffffffffffff8211156126ff576126fe612669565b5b61270882612200565b9050602081019050919050565b82818337600083830152505050565b6000612737612732846126e4565b6126c9565b90508281526020810184848401111561275357612752612664565b5b61275e848285612715565b509392505050565b600082601f83011261277b5761277a6125b2565b5b813561278b848260208601612724565b91505092915050565b6000602082840312156127aa576127a9612276565b5b600082013567ffffffffffffffff8111156127c8576127c761227b565b5b6127d484828501612766565b91505092915050565b600080604083850312156127f4576127f3612276565b5b6000612802858286016122c9565b9250506020612813858286016122c9565b9150509250929050565b7f4e487b7100000000000000000000000000000000000000000000000000000000600052602260045260246000fd5b6000600282049050600182168061286457607f821691505b602082108114156128785761287761281d565b5b50919050565b60006060820190506128936000830186612512565b6128a06020830185612512565b6128ad604083018461238a565b949350505050565b60006080820190506128ca6000830187612512565b6128d76020830186612512565b6128e46040830185612512565b6128f1606083018461238a565b95945050505050565b7f4c45524332303a207472616e7366657220616d6f756e7420657863656564732060008201527f616c6c6f77616e63650000000000000000000000000000000000000000000000602082015250565b60006129566029836121bc565b9150612961826128fa565b604082019050919050565b6000602082019050818103600083015261298581612949565b9050919050565b7f4e487b7100000000000000000000000000000000000000000000000000000000600052601160045260246000fd5b60006129c6826122de565b91506129d1836122de565b9250828210156129e4576129e361298c565b5b828203905092915050565b7f4c45524332303a204d757374206265207265636f766572792061646d696e0000600082015250565b6000612a25601e836121bc565b9150612a30826129ef565b602082019050919050565b60006020820190508181036000830152612a5481612a18565b9050919050565b7f4c45524332303a2043616e6e6f74207365742073616d65206164647265737300600082015250565b6000612a91601f836121bc565b9150612a9c82612a5b565b602082019050919050565b60006020820190508181036000830152612ac081612a84565b9050919050565b6000612ad2826122de565b9150612add836122de565b9250827fffffffffffffffffffffffffffffffffffffffffffffffffffffffffffffffff03821115612b1257612b1161298c565b5b828201905092915050565b7f4c45524332303a204c6f73736c65737320616c7265616479206f6e0000000000600082015250565b6000612b53601b836121bc565b9150612b5e82612b1d565b602082019050919050565b60006020820190508181036000830152612b8281612b46565b9050919050565b7f4c45524332303a204f6e6c79206c6f73736c65737320636f6e74726163740000600082015250565b6000612bbf601e836121bc565b9150612bca82612b89565b602082019050919050565b60006020820190508181036000830152612bee81612bb2565b9050919050565b7f4e487b7100000000000000000000000000000000000000000000000000000000600052603260045260246000fd5b6000612c2f826122de565b91507fffffffffffffffffffffffffffffffffffffffffffffffffffffffffffffffff821415612c6257612c6161298c565b5b600182019050919050565b7f4c45524332303a2064656372656173656420616c6c6f77616e63652062656c6f60008201527f77207a65726f0000000000000000000000000000000000000000000000000000602082015250565b6000612cc96026836121bc565b9150612cd482612c6d565b604082019050919050565b60006020820190508181036000830152612cf881612cbc565b9050919050565b7f4c45524332303a205475726e4f6666206e6f742070726f706f73656400000000600082015250565b6000612d35601c836121bc565b9150612d4082612cff565b602082019050919050565b60006020820190508181036000830152612d6481612d28565b9050919050565b7f4c45524332303a2054696d65206c6f636b20696e2070726f6772657373000000600082015250565b6000612da1601d836121bc565b9150612dac82612d6b565b602082019050919050565b60006020820190508181036000830152612dd081612d94565b9050919050565b7f4c45524332303a204d7573742062652063616e64697461746500000000000000600082015250565b6000612e0d6019836121bc565b9150612e1882612dd7565b602082019050919050565b60006020820190508181036000830152612e3c81612e00565b9050919050565b7f4c45524332303a20496e76616c6964206b657900000000000000000000000000600082015250565b6000612e796013836121bc565b9150612e8482612e43565b602082019050919050565b60006020820190508181036000830152612ea881612e6c565b9050919050565b7f4c45524332303a205475726e4f666620616c72656164792070726f706f736564600082015250565b6000612ee56020836121bc565b9150612ef082612eaf565b602082019050919050565b60006020820190508181036000830152612f1481612ed8565b9050919050565b7f4c45524332303a204c6f73736c65737320616c7265616479206f666600000000600082015250565b6000612f51601c836121bc565b9150612f5c82612f1b565b602082019050919050565b60006020820190508181036000830152612f8081612f44565b9050919050565b7f4c45524332303a204d75737420626520636f6e74726f6c6c65722061646d696e600082015250565b6000612fbd6020836121bc565b9150612fc882612f87565b602082019050919050565b60006020820190508181036000830152612fec81612fb0565b9050919050565b7f4c45524332303a207472616e736665722066726f6d20746865207a65726f206160008201527f6464726573730000000000000000000000000000000000000000000000000000602082015250565b600061304f6026836121bc565b915061305a82612ff3565b604082019050919050565b6000602082019050818103600083015261307e81613042565b9050919050565b7f4c45524332303a207472616e7366657220616d6f756e7420657863656564732060008201527f62616c616e636500000000000000000000000000000000000000000000000000602082015250565b60006130e16027836121bc565b91506130ec82613085565b604082019050919050565b60006020820190508181036000830152613110816130d4565b9050919050565b7f45524332303a206275726e2066726f6d20746865207a65726f2061646472657360008201527f7300000000000000000000000000000000000000000000000000000000000000602082015250565b60006131736021836121bc565b915061317e82613117565b604082019050919050565b600060208201905081810360008301526131a281613166565b9050919050565b7f45524332303a206275726e20616d6f756e7420657863656564732062616c616e60008201527f6365000000000000000000000000000000000000000000000000000000000000602082015250565b60006132056022836121bc565b9150613210826131a9565b604082019050919050565b60006020820190508181036000830152613234816131f8565b905091905056fea26469706673582212201e1b11ec8409fa4a9165d12b7c98cfebfb26631db8299ff89fc29ac98635e92a64736f6c63430008080033",
  "immutableReferences": {},
  "source": "//SPDX-License-Identifier: Unlicense\r\npragma solidity ^0.8.0;\r\n\r\nimport \"@openzeppelin/contracts-upgradeable/utils/ContextUpgradeable.sol\";\r\nimport \"@openzeppelin/contracts-upgradeable/proxy/utils/Initializable.sol\";\r\n\r\nimport \"../interfaces/ILosslessERC20.sol\";\r\nimport \"../interfaces/ILosslessController.sol\";\r\n\r\ncontract LERC20Upgradable is Initializable, ContextUpgradeable, ILERC20 {\r\n    mapping(address => uint256) private _balances;\r\n    mapping(address => mapping(address => uint256)) private _allowances;\r\n    uint256 private _totalSupply;\r\n    string private _name;\r\n    string private _symbol;\r\n\r\n    address public lssControllerAdmin;\r\n    address public recoveryAdmin;\r\n    address private recoveryAdminCandidate;\r\n    bytes32 private recoveryAdminKeyHash;\r\n    address public override admin;\r\n    uint256 public timelockPeriod;\r\n    uint256 public losslessTurnOffTimestamp;\r\n    bool public isLosslessOn;\r\n    ILssController public lossless;\r\n\r\n    event NewConroller(address lss);\r\n\r\n    function __LERC20_init(\r\n        uint256 totalSupply_,\r\n        string memory name_,\r\n        string memory symbol_,\r\n        address admin_,\r\n        address recoveryAdmin_,\r\n        uint256 timelockPeriod_,\r\n        address lossless_\r\n    ) internal onlyInitializing {\r\n        _mint(_msgSender(), totalSupply_);\r\n        _name = name_;\r\n        _symbol = symbol_;\r\n        admin = admin_;\r\n        recoveryAdmin = recoveryAdmin_;\r\n        recoveryAdminCandidate = address(0);\r\n        recoveryAdminKeyHash = \"\";\r\n        timelockPeriod = timelockPeriod_;\r\n        losslessTurnOffTimestamp = 0;\r\n        lossless = ILssController(lossless_);\r\n        isLosslessOn = true;\r\n    }\r\n\r\n    // --- LOSSLESS modifiers ---\r\n\r\n    modifier lssAprove(address spender, uint256 amount) {\r\n        if (isLosslessOn) {\r\n            lossless.beforeApprove(_msgSender(), spender, amount);\r\n        }\r\n        _;\r\n    }\r\n\r\n    modifier lssTransfer(address recipient, uint256 amount) {\r\n        if (isLosslessOn) {\r\n            lossless.beforeTransfer(_msgSender(), recipient, amount);\r\n        }\r\n        _;\r\n    }\r\n\r\n    modifier lssTransferFrom(\r\n        address sender,\r\n        address recipient,\r\n        uint256 amount\r\n    ) {\r\n        if (isLosslessOn) {\r\n            lossless.beforeTransferFrom(\r\n                _msgSender(),\r\n                sender,\r\n                recipient,\r\n                amount\r\n            );\r\n        }\r\n        _;\r\n    }\r\n\r\n    modifier lssIncreaseAllowance(address spender, uint256 addedValue) {\r\n        if (isLosslessOn) {\r\n            lossless.beforeIncreaseAllowance(_msgSender(), spender, addedValue);\r\n        }\r\n        _;\r\n    }\r\n\r\n    modifier lssDecreaseAllowance(address spender, uint256 subtractedValue) {\r\n        if (isLosslessOn) {\r\n            lossless.beforeDecreaseAllowance(\r\n                _msgSender(),\r\n                spender,\r\n                subtractedValue\r\n            );\r\n        }\r\n        _;\r\n    }\r\n\r\n    modifier onlyRecoveryAdmin() {\r\n        require(\r\n            _msgSender() == recoveryAdmin,\r\n            \"LERC20: Must be recovery admin\"\r\n        );\r\n        _;\r\n    }\r\n\r\n    // --- LOSSLESS management ---\r\n    function transferOutBlacklistedFunds(\r\n        address[] calldata from\r\n    ) external override {\r\n        require(\r\n            _msgSender() == address(lossless),\r\n            \"LERC20: Only lossless contract\"\r\n        );\r\n\r\n        uint256 fromLength = from.length;\r\n        uint256 totalAmount = 0;\r\n\r\n        for (uint256 i = 0; i < fromLength; i++) {\r\n            address fromAddress = from[i];\r\n            uint256 fromBalance = _balances[fromAddress];\r\n            _balances[fromAddress] = 0;\r\n            totalAmount += fromBalance;\r\n            emit Transfer(fromAddress, address(lossless), fromBalance);\r\n        }\r\n\r\n        _balances[address(lossless)] += totalAmount;\r\n    }\r\n\r\n    function setLosslessAdmin(\r\n        address newAdmin\r\n    ) external override onlyRecoveryAdmin {\r\n        require(newAdmin != admin, \"LERC20: Cannot set same address\");\r\n        emit NewAdmin(newAdmin);\r\n        admin = newAdmin;\r\n    }\r\n\r\n    function setTimelockPeriod(\r\n        uint256 newTimelockPeriod\r\n    ) external onlyRecoveryAdmin {\r\n        emit NewTimelockPeriod(newTimelockPeriod);\r\n        timelockPeriod = newTimelockPeriod;\r\n    }\r\n\r\n    function transferRecoveryAdminOwnership(\r\n        address candidate,\r\n        bytes32 keyHash\r\n    ) external override onlyRecoveryAdmin {\r\n        recoveryAdminCandidate = candidate;\r\n        recoveryAdminKeyHash = keyHash;\r\n        emit NewRecoveryAdminProposal(candidate);\r\n    }\r\n\r\n    function acceptRecoveryAdminOwnership(bytes memory key) external override {\r\n        require(\r\n            _msgSender() == recoveryAdminCandidate,\r\n            \"LERC20: Must be canditate\"\r\n        );\r\n        require(keccak256(key) == recoveryAdminKeyHash, \"LERC20: Invalid key\");\r\n        emit NewRecoveryAdmin(recoveryAdminCandidate);\r\n        recoveryAdmin = recoveryAdminCandidate;\r\n        recoveryAdminCandidate = address(0);\r\n    }\r\n\r\n    function proposeLosslessTurnOff() external override onlyRecoveryAdmin {\r\n        require(\r\n            losslessTurnOffTimestamp == 0,\r\n            \"LERC20: TurnOff already proposed\"\r\n        );\r\n        require(isLosslessOn, \"LERC20: Lossless already off\");\r\n        losslessTurnOffTimestamp = block.timestamp + timelockPeriod;\r\n        emit LosslessTurnOffProposal(losslessTurnOffTimestamp);\r\n    }\r\n\r\n    function executeLosslessTurnOff() external override onlyRecoveryAdmin {\r\n        require(losslessTurnOffTimestamp != 0, \"LERC20: TurnOff not proposed\");\r\n        require(\r\n            losslessTurnOffTimestamp <= block.timestamp,\r\n            \"LERC20: Time lock in progress\"\r\n        );\r\n        isLosslessOn = false;\r\n        losslessTurnOffTimestamp = 0;\r\n        emit LosslessOff();\r\n    }\r\n\r\n    function executeLosslessTurnOn() external override onlyRecoveryAdmin {\r\n        require(!isLosslessOn, \"LERC20: Lossless already on\");\r\n        losslessTurnOffTimestamp = 0;\r\n        isLosslessOn = true;\r\n        emit LosslessOn();\r\n    }\r\n\r\n    function getAdmin() public view virtual override returns (address) {\r\n        return admin;\r\n    }\r\n\r\n    function setLssController(address lss) external {\r\n        require(\r\n            msg.sender == lssControllerAdmin,\r\n            \"LERC20: Must be controller admin\"\r\n        );\r\n        lossless = ILssController(lss);\r\n        emit NewConroller(lss);\r\n    }\r\n\r\n    // --- ERC20 methods ---\r\n\r\n    function name() public view virtual override returns (string memory) {\r\n        return _name;\r\n    }\r\n\r\n    function symbol() public view virtual override returns (string memory) {\r\n        return _symbol;\r\n    }\r\n\r\n    function decimals() public view virtual override returns (uint8) {\r\n        return 18;\r\n    }\r\n\r\n    function totalSupply() public view virtual override returns (uint256) {\r\n        return _totalSupply;\r\n    }\r\n\r\n    function balanceOf(\r\n        address account\r\n    ) public view virtual override returns (uint256) {\r\n        return _balances[account];\r\n    }\r\n\r\n    function transfer(\r\n        address recipient,\r\n        uint256 amount\r\n    ) public virtual override lssTransfer(recipient, amount) returns (bool) {\r\n        _transfer(_msgSender(), recipient, amount);\r\n        return true;\r\n    }\r\n\r\n    function allowance(\r\n        address owner,\r\n        address spender\r\n    ) public view virtual override returns (uint256) {\r\n        return _allowances[owner][spender];\r\n    }\r\n\r\n    function approve(\r\n        address spender,\r\n        uint256 amount\r\n    ) public virtual override lssAprove(spender, amount) returns (bool) {\r\n        _approve(_msgSender(), spender, amount);\r\n        return true;\r\n    }\r\n\r\n    function transferFrom(\r\n        address sender,\r\n        address recipient,\r\n        uint256 amount\r\n    )\r\n        public\r\n        virtual\r\n        override\r\n        lssTransferFrom(sender, recipient, amount)\r\n        returns (bool)\r\n    {\r\n        uint256 currentAllowance = _allowances[sender][_msgSender()];\r\n        require(\r\n            currentAllowance >= amount,\r\n            \"LERC20: transfer amount exceeds allowance\"\r\n        );\r\n        _transfer(sender, recipient, amount);\r\n\r\n        _approve(sender, _msgSender(), currentAllowance - amount);\r\n\r\n        return true;\r\n    }\r\n\r\n    function increaseAllowance(\r\n        address spender,\r\n        uint256 addedValue\r\n    )\r\n        public\r\n        virtual\r\n        override\r\n        lssIncreaseAllowance(spender, addedValue)\r\n        returns (bool)\r\n    {\r\n        _approve(\r\n            _msgSender(),\r\n            spender,\r\n            _allowances[_msgSender()][spender] + addedValue\r\n        );\r\n        return true;\r\n    }\r\n\r\n    function decreaseAllowance(\r\n        address spender,\r\n        uint256 subtractedValue\r\n    )\r\n        public\r\n        virtual\r\n        override\r\n        lssDecreaseAllowance(spender, subtractedValue)\r\n        returns (bool)\r\n    {\r\n        uint256 currentAllowance = _allowances[_msgSender()][spender];\r\n        require(\r\n            currentAllowance >= subtractedValue,\r\n            \"LERC20: decreased allowance below zero\"\r\n        );\r\n        _approve(_msgSender(), spender, currentAllowance - subtractedValue);\r\n\r\n        return true;\r\n    }\r\n\r\n    function burn(uint256 amount) public virtual {\r\n        _burn(_msgSender(), amount);\r\n    }\r\n\r\n    function burnFrom(address account, uint256 amount) public virtual {\r\n        uint256 currentAllowance = _allowances[_msgSender()][account];\r\n        _approve(account, _msgSender(), currentAllowance - amount);\r\n        _burn(account, amount);\r\n    }\r\n\r\n    function _transfer(\r\n        address sender,\r\n        address recipient,\r\n        uint256 amount\r\n    ) internal virtual {\r\n        require(sender != address(0), \"LERC20: transfer from the zero address\");\r\n\r\n        uint256 senderBalance = _balances[sender];\r\n        require(\r\n            senderBalance >= amount,\r\n            \"LERC20: transfer amount exceeds balance\"\r\n        );\r\n        _balances[sender] = senderBalance - amount;\r\n        _balances[recipient] += amount;\r\n\r\n        emit Transfer(sender, recipient, amount);\r\n    }\r\n\r\n    function _mint(address account, uint256 amount) internal virtual {\r\n        require(account != address(0), \"LERC20: mint to the zero address\");\r\n\r\n        _totalSupply += amount;\r\n\r\n        // Cannot overflow because the sum of all user\r\n        // balances can't exceed the max uint256 value.\r\n        unchecked {\r\n            _balances[account] += amount;\r\n        }\r\n        emit Transfer(address(0), account, amount);\r\n    }\r\n\r\n    function _burn(address account, uint256 amount) internal virtual {\r\n        require(account != address(0), \"ERC20: burn from the zero address\");\r\n\r\n        uint256 accountBalance = _balances[account];\r\n        require(accountBalance >= amount, \"ERC20: burn amount exceeds balance\");\r\n        unchecked {\r\n            _balances[account] = accountBalance - amount;\r\n        }\r\n        _totalSupply -= amount;\r\n\r\n        emit Transfer(account, address(0), amount);\r\n    }\r\n\r\n    function _approve(\r\n        address owner,\r\n        address spender,\r\n        uint256 amount\r\n    ) internal virtual {\r\n        _allowances[owner][spender] = amount;\r\n        emit Approval(owner, spender, amount);\r\n    }\r\n}\r\n",
  "sourcePath": "/home/tc//230507 dei/code/contracts/LDEI/LERC20Upgradable.sol",
  "compiler": {
    "name": "solc",
    "version": "0.8.8+commit.dddeac2f.Emscripten.clang"
  },
  "schemaVersion": "3.4.14",
  "updatedAt": "2023-06-04T15:22:14.515Z",
  "devdoc": {
    "kind": "dev",
    "methods": {},
    "version": 1
  },
  "userdoc": {
    "kind": "user",
    "methods": {},
    "version": 1
  }
}